{
  "_format": "hh-sol-artifact-1",
  "contractName": "PokeMarketPlace",
  "sourceName": "contracts/PokeMarketPlace.sol",
  "abi": [
    {
      "anonymous": false,
      "inputs": [
        {
          "indexed": true,
          "internalType": "uint256",
          "name": "orderId",
          "type": "uint256"
        },
        {
          "indexed": false,
          "internalType": "uint256",
          "name": "bidId",
          "type": "uint256"
        },
        {
          "indexed": false,
          "internalType": "uint16",
          "name": "copies",
          "type": "uint16"
        }
      ],
      "name": "BidAccepted",
      "type": "event"
    },
    {
      "anonymous": false,
      "inputs": [
        {
          "indexed": true,
          "internalType": "uint256",
          "name": "orderId",
          "type": "uint256"
        },
        {
          "indexed": false,
          "internalType": "uint256",
          "name": "bidIndex",
          "type": "uint256"
        },
        {
          "indexed": false,
          "internalType": "address",
          "name": "bidder",
          "type": "address"
        },
        {
          "indexed": false,
          "internalType": "uint16",
          "name": "copies",
          "type": "uint16"
        },
        {
          "indexed": false,
          "internalType": "uint256",
          "name": "pricePerNft",
          "type": "uint256"
        },
        {
          "indexed": false,
          "internalType": "uint256",
          "name": "bidTime",
          "type": "uint256"
        }
      ],
      "name": "BidPlaced",
      "type": "event"
    },
    {
      "anonymous": false,
      "inputs": [
        {
          "indexed": true,
          "internalType": "uint256",
          "name": "orderId",
          "type": "uint256"
        },
        {
          "indexed": false,
          "internalType": "uint256",
          "name": "bidId",
          "type": "uint256"
        }
      ],
      "name": "BidRejected",
      "type": "event"
    },
    {
      "anonymous": false,
      "inputs": [
        {
          "indexed": true,
          "internalType": "uint256",
          "name": "orderId",
          "type": "uint256"
        },
        {
          "indexed": false,
          "internalType": "uint256",
          "name": "bidId",
          "type": "uint256"
        }
      ],
      "name": "BidWithdraw",
      "type": "event"
    },
    {
      "anonymous": false,
      "inputs": [
        {
          "indexed": false,
          "internalType": "uint8",
          "name": "version",
          "type": "uint8"
        }
      ],
      "name": "Initialized",
      "type": "event"
    },
    {
      "anonymous": false,
      "inputs": [
        {
          "indexed": false,
          "internalType": "uint256[]",
          "name": "orderIds",
          "type": "uint256[]"
        },
        {
          "indexed": false,
          "internalType": "uint256[]",
          "name": "copies",
          "type": "uint256[]"
        }
      ],
      "name": "NFTBulkBuy",
      "type": "event"
    },
    {
      "anonymous": false,
      "inputs": [
        {
          "indexed": true,
          "internalType": "uint256",
          "name": "orderId",
          "type": "uint256"
        }
      ],
      "name": "OrderCancelled",
      "type": "event"
    },
    {
      "anonymous": false,
      "inputs": [
        {
          "indexed": true,
          "internalType": "uint256",
          "name": "orderId",
          "type": "uint256"
        },
        {
          "indexed": true,
          "internalType": "uint256",
          "name": "tokenId",
          "type": "uint256"
        },
        {
          "indexed": false,
          "internalType": "uint256",
          "name": "price",
          "type": "uint256"
        },
        {
          "indexed": false,
          "internalType": "address",
          "name": "seller",
          "type": "address"
        },
        {
          "indexed": false,
          "internalType": "uint16",
          "name": "copies",
          "type": "uint16"
        },
        {
          "indexed": false,
          "internalType": "enum PokeMarketPlace.SaleType",
          "name": "saleType",
          "type": "uint8"
        },
        {
          "indexed": false,
          "internalType": "uint256",
          "name": "startTime",
          "type": "uint256"
        },
        {
          "indexed": false,
          "internalType": "uint256",
          "name": "endTime",
          "type": "uint256"
        },
        {
          "indexed": false,
          "internalType": "address",
          "name": "paymentToken",
          "type": "address"
        },
        {
          "indexed": false,
          "internalType": "address",
          "name": "nftContract",
          "type": "address"
        }
      ],
      "name": "OrderCreated",
      "type": "event"
    },
    {
      "anonymous": false,
      "inputs": [
        {
          "indexed": true,
          "internalType": "uint256",
          "name": "orderId",
          "type": "uint256"
        },
        {
          "indexed": false,
          "internalType": "address",
          "name": "buyer",
          "type": "address"
        },
        {
          "indexed": false,
          "internalType": "uint16",
          "name": "copies",
          "type": "uint16"
        }
      ],
      "name": "OrderPurchased",
      "type": "event"
    },
    {
      "anonymous": false,
      "inputs": [
        {
          "indexed": true,
          "internalType": "address",
          "name": "previousOwner",
          "type": "address"
        },
        {
          "indexed": true,
          "internalType": "address",
          "name": "newOwner",
          "type": "address"
        }
      ],
      "name": "OwnershipTransferred",
      "type": "event"
    },
    {
      "inputs": [
        {
          "internalType": "uint256",
          "name": "orderId",
          "type": "uint256"
        },
        {
          "internalType": "uint256",
          "name": "bidId",
          "type": "uint256"
        }
      ],
      "name": "acceptBid",
      "outputs": [],
      "stateMutability": "nonpayable",
      "type": "function"
    },
    {
      "inputs": [
        {
          "internalType": "address",
          "name": "contractAddress",
          "type": "address"
        }
      ],
      "name": "addNftContractSupport",
      "outputs": [],
      "stateMutability": "nonpayable",
      "type": "function"
    },
    {
      "inputs": [
        {
          "internalType": "address",
          "name": "tokenAddress",
          "type": "address"
        }
      ],
      "name": "addTokenSupport",
      "outputs": [],
      "stateMutability": "nonpayable",
      "type": "function"
    },
    {
      "inputs": [],
      "name": "adminOwner",
      "outputs": [
        {
          "internalType": "address payable",
          "name": "",
          "type": "address"
        }
      ],
      "stateMutability": "view",
      "type": "function"
    },
    {
      "inputs": [
        {
          "internalType": "uint256",
          "name": "",
          "type": "uint256"
        },
        {
          "internalType": "uint256",
          "name": "",
          "type": "uint256"
        }
      ],
      "name": "bids",
      "outputs": [
        {
          "internalType": "address",
          "name": "bidder",
          "type": "address"
        },
        {
          "internalType": "uint16",
          "name": "copies",
          "type": "uint16"
        },
        {
          "internalType": "uint256",
          "name": "price",
          "type": "uint256"
        },
        {
          "internalType": "uint256",
          "name": "timestamp",
          "type": "uint256"
        },
        {
          "internalType": "enum PokeMarketPlace.BidStatus",
          "name": "status",
          "type": "uint8"
        }
      ],
      "stateMutability": "view",
      "type": "function"
    },
    {
      "inputs": [
        {
          "internalType": "uint256[]",
          "name": "orderIds",
          "type": "uint256[]"
        },
        {
          "internalType": "uint256[]",
          "name": "amounts",
          "type": "uint256[]"
        }
      ],
      "name": "bulkBuy",
      "outputs": [],
      "stateMutability": "payable",
      "type": "function"
    },
    {
      "inputs": [
        {
          "internalType": "uint256",
          "name": "orderId",
          "type": "uint256"
        },
        {
          "internalType": "uint16",
          "name": "copies",
          "type": "uint16"
        }
      ],
      "name": "buyNow",
      "outputs": [],
      "stateMutability": "payable",
      "type": "function"
    },
    {
      "inputs": [
        {
          "internalType": "uint256",
          "name": "orderId",
          "type": "uint256"
        }
      ],
      "name": "cancelOrder",
      "outputs": [],
      "stateMutability": "nonpayable",
      "type": "function"
    },
    {
      "inputs": [
        {
          "internalType": "uint256",
          "name": "_platformFees",
          "type": "uint256"
        },
        {
          "internalType": "address",
          "name": "_admin",
          "type": "address"
        }
      ],
      "name": "initialize",
      "outputs": [],
      "stateMutability": "nonpayable",
      "type": "function"
    },
    {
      "inputs": [
        {
          "internalType": "address",
          "name": "",
          "type": "address"
        }
      ],
      "name": "nftContracts",
      "outputs": [
        {
          "internalType": "bool",
          "name": "",
          "type": "bool"
        }
      ],
      "stateMutability": "view",
      "type": "function"
    },
    {
      "inputs": [
        {
          "internalType": "address",
          "name": "operator",
          "type": "address"
        },
        {
          "internalType": "address",
          "name": "from",
          "type": "address"
        },
        {
          "internalType": "uint256[]",
          "name": "ids",
          "type": "uint256[]"
        },
        {
          "internalType": "uint256[]",
          "name": "values",
          "type": "uint256[]"
        },
        {
          "internalType": "bytes",
          "name": "data",
          "type": "bytes"
        }
      ],
      "name": "onERC1155BatchReceived",
      "outputs": [
        {
          "internalType": "bytes4",
          "name": "",
          "type": "bytes4"
        }
      ],
      "stateMutability": "pure",
      "type": "function"
    },
    {
      "inputs": [
        {
          "internalType": "address",
          "name": "",
          "type": "address"
        },
        {
          "internalType": "address",
          "name": "",
          "type": "address"
        },
        {
          "internalType": "uint256",
          "name": "",
          "type": "uint256"
        },
        {
          "internalType": "uint256",
          "name": "",
          "type": "uint256"
        },
        {
          "internalType": "bytes",
          "name": "",
          "type": "bytes"
        }
      ],
      "name": "onERC1155Received",
      "outputs": [
        {
          "internalType": "bytes4",
          "name": "",
          "type": "bytes4"
        }
      ],
      "stateMutability": "pure",
      "type": "function"
    },
    {
      "inputs": [
        {
          "internalType": "uint256",
          "name": "",
          "type": "uint256"
        }
      ],
      "name": "order",
      "outputs": [
        {
          "internalType": "uint256",
          "name": "tokenId",
          "type": "uint256"
        },
        {
          "internalType": "uint256",
          "name": "price",
          "type": "uint256"
        },
        {
          "internalType": "address",
          "name": "seller",
          "type": "address"
        },
        {
          "internalType": "uint16",
          "name": "copies",
          "type": "uint16"
        },
        {
          "internalType": "enum PokeMarketPlace.SaleType",
          "name": "saleType",
          "type": "uint8"
        },
        {
          "internalType": "uint256",
          "name": "startTime",
          "type": "uint256"
        },
        {
          "internalType": "uint256",
          "name": "endTime",
          "type": "uint256"
        },
        {
          "internalType": "address",
          "name": "paymentToken",
          "type": "address"
        },
        {
          "internalType": "address",
          "name": "nftContract",
          "type": "address"
        }
      ],
      "stateMutability": "view",
      "type": "function"
    },
    {
      "inputs": [],
      "name": "orderNonce",
      "outputs": [
        {
          "internalType": "uint256",
          "name": "",
          "type": "uint256"
        }
      ],
      "stateMutability": "view",
      "type": "function"
    },
    {
      "inputs": [],
      "name": "owner",
      "outputs": [
        {
          "internalType": "address",
          "name": "",
          "type": "address"
        }
      ],
      "stateMutability": "view",
      "type": "function"
    },
    {
      "inputs": [
        {
          "internalType": "uint256",
          "name": "orderId",
          "type": "uint256"
        },
        {
          "internalType": "uint16",
          "name": "copies",
          "type": "uint16"
        },
        {
          "internalType": "uint256",
          "name": "pricePerNFT",
          "type": "uint256"
        }
      ],
      "name": "placeOfferForOrder",
      "outputs": [],
      "stateMutability": "payable",
      "type": "function"
    },
    {
      "inputs": [
        {
          "internalType": "uint256",
          "name": "tokenId",
          "type": "uint256"
        },
        {
          "internalType": "address",
          "name": "nftContract",
          "type": "address"
        },
        {
          "internalType": "uint16",
          "name": "copies",
          "type": "uint16"
        },
        {
          "internalType": "uint256",
          "name": "pricePerNFT",
          "type": "uint256"
        },
        {
          "internalType": "address",
          "name": "paymentToken",
          "type": "address"
        },
        {
          "internalType": "uint256",
          "name": "endTime",
          "type": "uint256"
        },
        {
          "internalType": "enum PokeMarketPlace.SaleType",
          "name": "saleType",
          "type": "uint8"
        }
      ],
      "name": "placeOrderForSell",
      "outputs": [],
      "stateMutability": "nonpayable",
      "type": "function"
    },
    {
      "inputs": [],
      "name": "platformFees",
      "outputs": [
        {
          "internalType": "uint256",
          "name": "",
          "type": "uint256"
        }
      ],
      "stateMutability": "view",
      "type": "function"
    },
    {
      "inputs": [],
      "name": "renounceOwnership",
      "outputs": [],
      "stateMutability": "nonpayable",
      "type": "function"
    },
    {
      "inputs": [
        {
          "internalType": "uint256",
          "name": "fee",
          "type": "uint256"
        }
      ],
      "name": "setPlatformFees",
      "outputs": [],
      "stateMutability": "nonpayable",
      "type": "function"
    },
    {
      "inputs": [
        {
          "internalType": "bytes4",
          "name": "interfaceId",
          "type": "bytes4"
        }
      ],
      "name": "supportsInterface",
      "outputs": [
        {
          "internalType": "bool",
          "name": "",
          "type": "bool"
        }
      ],
      "stateMutability": "view",
      "type": "function"
    },
    {
      "inputs": [
        {
          "internalType": "address",
          "name": "",
          "type": "address"
        }
      ],
      "name": "tokensSupport",
      "outputs": [
        {
          "internalType": "bool",
          "name": "",
          "type": "bool"
        }
      ],
      "stateMutability": "view",
      "type": "function"
    },
    {
      "inputs": [
        {
          "internalType": "address",
          "name": "newOwner",
          "type": "address"
        }
      ],
      "name": "transferOwnership",
      "outputs": [],
      "stateMutability": "nonpayable",
      "type": "function"
    },
    {
      "inputs": [
        {
          "internalType": "uint256",
          "name": "amount",
          "type": "uint256"
        },
        {
          "internalType": "address",
          "name": "tokenAddress",
          "type": "address"
        }
      ],
      "name": "withdrawMoney",
      "outputs": [],
      "stateMutability": "nonpayable",
      "type": "function"
    },
    {
      "inputs": [
        {
          "internalType": "uint256",
          "name": "orderId",
          "type": "uint256"
        },
        {
          "internalType": "uint256",
          "name": "bidId",
          "type": "uint256"
        },
        {
          "internalType": "bool",
          "name": "isReject",
          "type": "bool"
        }
      ],
      "name": "withdrawRejectBid",
      "outputs": [],
      "stateMutability": "nonpayable",
      "type": "function"
    }
  ],
  "bytecode": "0x608060405234801561001057600080fd5b50613246806100206000396000f3fe6080604052600436106101655760003560e01c8063733c237d116100d1578063ada0f98f1161008a578063da35a26f11610064578063da35a26f146104ff578063e6f19ae61461051f578063f23a6e6114610532578063f2fde38b1461057857600080fd5b8063ada0f98f1461044e578063b02e75881461047e578063bc197c811461049e57600080fd5b8063733c237d1461038c57806379caee8c146103ac5780637b3c4baa146103cc5780638bd130cb146103fd5780638da5cb5b14610410578063a23c622a1461042e57600080fd5b8063194a4e7e11610123578063194a4e7e1461027e57806321603f4314610294578063369ede15146103245780634266aff814610337578063514fcac714610357578063715018a61461037757600080fd5b8062f313af1461016a57806301ffc9a71461018c57806302e9d5e4146101d25780630f1dd150146101f25780631417b9461461022257806316f8de891461025a575b600080fd5b34801561017657600080fd5b5061018a6101853660046129d6565b610598565b005b34801561019857600080fd5b506101bd6101a7366004612a0f565b6001600160e01b031916630271189760e51b1490565b60405190151581526020015b60405180910390f35b3480156101de57600080fd5b5061018a6101ed366004612a40565b610881565b3480156101fe57600080fd5b506101bd61020d366004612a7e565b609b6020526000908152604090205460ff1681565b34801561022e57600080fd5b50609754610242906001600160a01b031681565b6040516001600160a01b0390911681526020016101c9565b34801561026657600080fd5b50610270609c5481565b6040519081526020016101c9565b34801561028a57600080fd5b50610270609d5481565b3480156102a057600080fd5b5061030f6102af366004612a99565b6098602052600090815260409020805460018201546002830154600384015460048501546005860154600690960154949593946001600160a01b0380851695600160a01b860461ffff1695600160b01b900460ff16949392908216911689565b6040516101c999989796959493929190612adc565b61018a610332366004612b51565b610cb6565b34801561034357600080fd5b5061018a610352366004612a7e565b61101c565b34801561036357600080fd5b5061018a610372366004612a99565b611048565b34801561038357600080fd5b5061018a6111eb565b34801561039857600080fd5b5061018a6103a7366004612a7e565b6111ff565b3480156103b857600080fd5b5061018a6103c7366004612a99565b61122b565b3480156103d857600080fd5b506103ec6103e7366004612a40565b611275565b6040516101c9959493929190612b7d565b61018a61040b366004612bc5565b6112d5565b34801561041c57600080fd5b506065546001600160a01b0316610242565b34801561043a57600080fd5b5061018a610449366004612bfa565b6117a6565b34801561045a57600080fd5b506101bd610469366004612a7e565b609a6020526000908152604090205460ff1681565b34801561048a57600080fd5b5061018a610499366004612c73565b611b4e565b3480156104aa57600080fd5b506104e66104b9366004612d24565b7fbc197c819b3e337a6f9652dd10becd7eef83032af3b9d958d3d42f669414662198975050505050505050565b6040516001600160e01b031990911681526020016101c9565b34801561050b57600080fd5b5061018a61051a366004612c73565b611cf0565b61018a61052d366004612ddf565b611e22565b34801561053e57600080fd5b506104e661054d366004612e4b565b7ff23a6e612e1ff4830e658fe43f4e3cb4a5f8170bd5d9e69fb5d7a7fa9e4fdf979695505050505050565b34801561058457600080fd5b5061018a610593366004612a7e565b612266565b6000838152609860209081526040808320609990925282208054919291859081106105c5576105c5612ec3565b9060005260206000209060040201905082156106155760028201546001600160a01b031633146106105760405162461bcd60e51b815260040161060790612ed9565b60405180910390fd5b61063e565b80546001600160a01b0316331461063e5760405162461bcd60e51b815260040161060790612ed9565b600060038083015460ff169081111561065957610659612ab2565b146106765760405162461bcd60e51b815260040161060790612ed9565b6005820154815460018301546001600160a01b0390921615916000916106a891600160a01b90910461ffff1690612f15565b9050816106c85760058401546106c8906001600160a01b031633836122df565b8415610768576000878152609960205260409020805460029190889081106106f2576106f2612ec3565b906000526020600020906004020160030160006101000a81548160ff0219169083600381111561072457610724612ab2565b0217905550867f862482fca0f1c4dde27614ebf8dceca2174aae3f4f5a9ee8d09aaf6aa8177f3f8760405161075b91815260200190565b60405180910390a26107fe565b60008781526099602052604090208054600391908890811061078c5761078c612ec3565b906000526020600020906004020160030160006101000a81548160ff021916908360038111156107be576107be612ab2565b0217905550867f5a993d07c9201d97ef6e60c13ca29c90f6c59a79f7b01a902db32551a28b29b9876040516107f591815260200190565b60405180910390a25b81156108785782546040516000916001600160a01b03169083908381818185875af1925050503d8060008114610850576040519150601f19603f3d011682016040523d82523d6000602084013e610855565b606091505b50509050806108765760405162461bcd60e51b815260040161060790612f34565b505b50505050505050565b6000828152609860209081526040808320609990925282208054919291849081106108ae576108ae612ec3565b600091825260209091206004909102018054600284015491925061ffff600160a01b91829004811691909204909116101561091f5760405162461bcd60e51b81526020600482015260116024820152704e6674206e6f7420617661696c61626c6560781b6044820152606401610607565b60028201546001600160a01b031633146109705760405162461bcd60e51b81526020600482015260126024820152711b9bdd081a5b9d9b1a59081c995c5d595cdd60721b6044820152606401610607565b600060038083015460ff169081111561098b5761098b612ab2565b146109d05760405162461bcd60e51b8152602060048201526015602482015274426964206e6f742076616c696420616e796d6f726560581b6044820152606401610607565b6005820154815460018301546001600160a01b039092161591600091610a0291600160a01b90910461ffff1690612f15565b9050600061271082609d54610a179190612f15565b610a219190612f5d565b6006860154855460405163a22cb46560e01b81526001600160a01b03918216600482015260016024820152929350169063a22cb46590604401600060405180830381600087803b158015610a7457600080fd5b505af1158015610a88573d6000803e3d6000fd5b50505050600685015484548654604051637921219560e11b81526001600160a01b039384169363f242432a93610ad4933093928216929091600160a01b900461ffff1690600401612f7f565b600060405180830381600087803b158015610aee57600080fd5b505af1158015610b02573d6000803e3d6000fd5b5050505082610b2d576005850154610b2d906001600160a01b031633610b288486612fba565b6122df565b600087815260996020526040902080546001919088908110610b5157610b51612ec3565b906000526020600020906004020160030160006101000a81548160ff02191690836003811115610b8357610b83612ab2565b021790555083546002860154610bac9161ffff600160a01b918290048116929190910416612fd1565b60028601805461ffff60a01b1916600160a01b61ffff93841681029190911791829055900416610be057610be087846122f4565b8215610c655760028501546000906001600160a01b0316610c018385612fba565b604051600081818185875af1925050503d8060008114610c3d576040519150601f19603f3d011682016040523d82523d6000602084013e610c42565b606091505b5050905080610c635760405162461bcd60e51b815260040161060790612f34565b505b835460408051888152600160a01b90920461ffff16602083015288917f7a73c3bdd15d1f1c81ca94b8fb48156cfa4fde7207172fe1ef057b88ecc7037391015b60405180910390a250505050505050565b610cbe612569565b6000828152609860205260408120906002820154600160b01b900460ff166001811115610ced57610ced612ab2565b14610d2f5760405162461bcd60e51b8152602060048201526012602482015271496e76616c69642053616c6573207479706560701b6044820152606401610607565b600581015460018201546001600160a01b039091161590600090610d589061ffff861690612f15565b90508115610da75780341015610da75760405162461bcd60e51b81526020600482015260146024820152734e6f742073756666696369656e742066756e647360601b6044820152606401610607565b600061271082609d54610dba9190612f15565b610dc49190612f5d565b905082610e145760058401546001600160a01b0316610de5813330866125c3565b6002850154610e12906001600160a01b0316610e018486612fba565b6001600160a01b038416919061262e565b505b60068401548454604051637921219560e11b81526001600160a01b039092169163f242432a91610e4c91309133918b90600401612f7f565b600060405180830381600087803b158015610e6657600080fd5b505af1158015610e7a573d6000803e3d6000fd5b5050505060028401546001600160a01b0381169061ffff878116600160a01b909204161415610f02576000878152609860205260408120818155600181018290556002810180546001600160b81b03191690556003810182905560048101919091556005810180546001600160a01b0319908116909155600690910180549091169055610f4c565b60008781526098602052604090206002018054879190601490610f31908490600160a01b900461ffff16612fd1565b92506101000a81548161ffff021916908361ffff1602179055505b8315610fcc5760006001600160a01b038216610f688486612fba565b604051600081818185875af1925050503d8060008114610fa4576040519150601f19603f3d011682016040523d82523d6000602084013e610fa9565b606091505b5050905080610fca5760405162461bcd60e51b815260040161060790612f34565b505b6040805133815261ffff8816602082015288917fdb622478ff344d543338a892a6794926bf6113f347037c2eaf4bf0ac50f71839910160405180910390a2505050505061101860018055565b5050565b61102461265e565b6001600160a01b03166000908152609a60205260409020805460ff19166001179055565b600081815260986020526040902060028101546001600160a01b031633146110a45760405162461bcd60e51b815260206004820152600f60248201526e125b9d985b1a59081c995c5d595cdd608a1b6044820152606401610607565b600681015481546002830154604051637921219560e11b81526001600160a01b039093169263f242432a926110ec923092339291600160a01b900461ffff1690600401612f7f565b600060405180830381600087803b15801561110657600080fd5b505af115801561111a573d6000803e3d6000fd5b5060019250611127915050565b6002820154600160b01b900460ff16600181111561114757611147612ab2565b14156111675760058101546111679083906001600160a01b0316156122f4565b600082815260986020526040808220828155600181018390556002810180546001600160b81b031916905560038101839055600481018390556005810180546001600160a01b03199081169091556006909101805490911690555183917f61b9399f2f0f32ca39ce8d7be32caed5ec22fe07a6daba3a467ed479ec60658291a25050565b6111f361265e565b6111fd60006126b8565b565b61120761265e565b6001600160a01b03166000908152609b60205260409020805460ff19166001179055565b61123361265e565b6113888111156112705760405162461bcd60e51b8152602060048201526008602482015267486967682066656560c01b6044820152606401610607565b609d55565b6099602052816000526040600020818154811061129157600080fd5b600091825260209091206004909102018054600182015460028301546003909301546001600160a01b0383169550600160a01b90920461ffff169350919060ff1685565b600083815260986020526040902060028101546001600160a01b03166113355760405162461bcd60e51b8152602060048201526015602482015274125b9d985b1a59081bdc99195c881c995c5d595cdd605a1b6044820152606401610607565b600581015460028201546001600160a01b0391821615911633141561138e5760405162461bcd60e51b815260206004820152600f60248201526e125b9d985b1a59081c995c5d595cdd608a1b6044820152606401610607565b428260040154116113d25760405162461bcd60e51b815260206004820152600e60248201526d027b93232b91032bc3834b932b2160951b6044820152606401610607565b82826001015411156114165760405162461bcd60e51b815260206004820152600d60248201526c496e76616c696420507269636560981b6044820152606401610607565b600282015461ffff600160a01b90910481169085161180159061143d575060008461ffff16115b61147f5760405162461bcd60e51b81526020600482015260136024820152726e6f7420656e6f756768207175616e7469747960681b6044820152606401610607565b6000858152609960205260408120549061149d61ffff871686612f15565b905082156114ef57803410156114ea5760405162461bcd60e51b81526020600482015260126024820152716e6f7420656e6f7567682062616c616e636560701b6044820152606401610607565b611696565b6005840154604051636eb1769f60e11b81523360048201523060248201526001600160a01b0390911690600090829063dd62ed3e9060440160206040518083038186803b15801561153f57600080fd5b505afa158015611553573d6000803e3d6000fd5b505050506040513d601f19601f820116820180604052508101906115779190612ff4565b6040516370a0823160e01b81523360048201529091506000906001600160a01b038416906370a082319060240160206040518083038186803b1580156115bc57600080fd5b505afa1580156115d0573d6000803e3d6000fd5b505050506040513d601f19601f820116820180604052508101906115f49190612ff4565b9050838210156116385760405162461bcd60e51b815260206004820152600f60248201526e616c6c6f77616e636520697373756560881b6044820152606401610607565b8381101561167d5760405162461bcd60e51b81526020600482015260126024820152716e6f7420656e6f7567682062616c616e636560701b6044820152606401610607565b6116926001600160a01b0384163330876125c3565b5050505b6000878152609960209081526040808320815160a08101835233815261ffff8b81168286019081529382018b8152426060840190815260808401888152855460018082018855968a5297909820845160049098020180549651909316600160a01b026001600160b01b03199096166001600160a01b039097169690961794909417815592518383015592516002830155925160038083018054949593949293909260ff191691849081111561174d5761174d612ab2565b0217905550506040805184815233602082015261ffff891691810191909152606081018790524260808201528891507f630d4414473703aa230e8fbb9576305336973b02b227da0e69f704ea36277db19060a001610ca5565b600084116117e65760405162461bcd60e51b815260206004820152600d60248201526c496e76616c696420707269636560981b6044820152606401610607565b6001600160a01b0386161580159061181657506001600160a01b0386166000908152609a602052604090205460ff165b6118595760405162461bcd60e51b8152602060048201526014602482015273125b9d985b1a59081391950810dbdb9d1c9858dd60621b6044820152606401610607565b600081600181111561186d5761186d612ab2565b148061188a5750600181600181111561188857611888612ab2565b145b6118c55760405162461bcd60e51b815260206004820152600c60248201526b496e76616c69642073616c6560a01b6044820152606401610607565b6001600160a01b03831615806118f357506001600160a01b0383166000908152609b602052604090205460ff165b6119385760405162461bcd60e51b8152602060048201526016602482015275125b9d985b1a59081d1bdad95b8810dbdb9d1c9858dd60521b6044820152606401610607565b604051806101200160405280888152602001858152602001336001600160a01b031681526020018661ffff16815260200182600181111561197b5761197b612ab2565b81524260208083019190915260408083018690526001600160a01b038088166060808601919091528b8216608095860152609c546000908152609885528390208651815593860151600180860191909155928601516002850180549288015161ffff16600160a01b026001600160b01b0319909316919093161717808255938501519293909160ff60b01b1990911690600160b01b908490811115611a2257611a22612ab2565b021790555060a0820151600382015560c0820151600482015560e08201516005820180546001600160a01b03199081166001600160a01b039384161790915561010090930151600690920180549093169116179055609c8054906000611a878361300d565b9091555050604051637921219560e11b81526001600160a01b0387169063f242432a90611abe90339030908c908b90600401612f7f565b600060405180830381600087803b158015611ad857600080fd5b505af1158015611aec573d6000803e3d6000fd5b50505050866001609c54611b009190612fba565b7f75e4ed4b926e96ef5c9c819b7791ea892a1b6c1a180e7e91948302052e10fd898633898642898b8f604051611b3d989796959493929190613028565b60405180910390a350505050505050565b611b5661265e565b6001600160a01b038116611ba3576097546040516001600160a01b039091169083156108fc029084906000818181858888f19350505050158015611b9e573d6000803e3d6000fd5b505050565b6001600160a01b0381166000908152609b602052604090205460ff16611c0b5760405162461bcd60e51b815260206004820152601960248201527f756e737570706f7274656420746f6b656e2061646472657373000000000000006044820152606401610607565b6040516370a0823160e01b815233600482015281906000906001600160a01b038316906370a082319060240160206040518083038186803b158015611c4f57600080fd5b505afa158015611c63573d6000803e3d6000fd5b505050506040513d601f19601f82011682018060405250810190611c879190612ff4565b905083811015611cd05760405162461bcd60e51b815260206004820152601460248201527318985b185b98d948125b9cdd59999a58da595b9d60621b6044820152606401610607565b609754611cea906001600160a01b0384811691168661262e565b50505050565b600054610100900460ff1615808015611d105750600054600160ff909116105b80611d2a5750303b158015611d2a575060005460ff166001145b611d8d5760405162461bcd60e51b815260206004820152602e60248201527f496e697469616c697a61626c653a20636f6e747261637420697320616c72656160448201526d191e481a5b9a5d1a585b1a5e995960921b6064820152608401610607565b6000805460ff191660011790558015611db0576000805461ff0019166101001790555b609780546001600160a01b0319166001600160a01b038416179055609d839055611dd861270a565b8015611b9e576000805461ff0019169055604051600181527f7f26b83ff96e1f2b6a682f133852f6798a09c465da95921460cefb38474024989060200160405180910390a1505050565b6097546001600160a01b03163314611e685760405162461bcd60e51b81526020600482015260096024820152682737ba1020b236b4b760b91b6044820152606401610607565b6000808467ffffffffffffffff811115611e8457611e84613082565b604051908082528060200260200182016040528015611ead578160200160208202803683370190505b50905060008567ffffffffffffffff811115611ecb57611ecb613082565b604051908082528060200260200182016040528015611ef4578160200160208202803683370190505b5090506000805b60ff81168811156120d157600089898360ff16818110611f1d57611f1d612ec3565b9050602002013590506000609860008c8c8660ff16818110611f4157611f41612ec3565b90506020020135815260200190815260200160002090506098600083815260200190815260200160002060000154868460ff1681518110611f8457611f84612ec3565b60200260200101818152505088888460ff16818110611fa557611fa5612ec3565b905060200201356098600084815260200190815260200160002060010154611fcd9190612f15565b611fd79088613098565b600083815260986020526040902060020154909750600160a01b900461ffff16898960ff861681811061200c5761200c612ec3565b90506020020135111561201e57600193505b600681015485516001600160a01b0390911690869060ff861690811061204657612046612ec3565b60200260200101906001600160a01b031690816001600160a01b03168152505088888460ff1681811061207b5761207b612ec3565b905060200201358160020160148282829054906101000a900461ffff166120a29190612fd1565b92506101000a81548161ffff021916908361ffff160217905550505080806120c9906130b0565b915050611efb565b50801580156120e05750348411155b6121185760405162461bcd60e51b8152602060048201526009602482015268125d88105b5bdd5b9d60ba1b6044820152606401610607565b60005b82518160ff16101561221e57828160ff168151811061213c5761213c612ec3565b60200260200101516001600160a01b031663f242432a3033878560ff168151811061216957612169612ec3565b60200260200101518b8b8760ff1681811061218657612186612ec3565b6040516001600160e01b031960e089901b1681526001600160a01b03968716600482015295909416602486015250604484019190915260209091020135606482015260a06084820152600060a482015260c401600060405180830381600087803b1580156121f357600080fd5b505af1158015612207573d6000803e3d6000fd5b505050508080612216906130b0565b91505061211b565b507f04b0a0f635536c10e902b8bcb5703ba035bebe05c24671fe33115f32da8acd38888888886040516122549493929190613106565b60405180910390a15050505050505050565b61226e61265e565b6001600160a01b0381166122d35760405162461bcd60e51b815260206004820152602660248201527f4f776e61626c653a206e6577206f776e657220697320746865207a65726f206160448201526564647265737360d01b6064820152608401610607565b6122dc816126b8565b50565b82611cea6001600160a01b038216848461262e565b6000828152609860205260408120905b60008481526099602052604090205460ff82161015611cea576000848152609960205260408120805460ff841690811061234057612340612ec3565b60009182526020909120600360049092020181015460ff169081111561236857612368612ab2565b1415612557576000848152609960205260408120805460ff841690811061239157612391612ec3565b906000526020600020906004020160010154609960008781526020019081526020016000208360ff16815481106123ca576123ca612ec3565b60009182526020909120600490910201546123f09190600160a01b900461ffff16612f15565b6000868152609960205260409020805491925060029160ff851690811061241957612419612ec3565b906000526020600020906004020160030160006101000a81548160ff0219169083600381111561244b5761244b612ab2565b021790555083156124fe576000858152609960205260408120805460ff851690811061247957612479612ec3565b600091825260208220600490910201546040516001600160a01b039091169184919081818185875af1925050503d80600081146124d2576040519150601f19603f3d011682016040523d82523d6000602084013e6124d7565b606091505b50509050806124f85760405162461bcd60e51b815260040161060790612f34565b50612555565b600583015460008681526099602052604090208054612555926001600160a01b0316919060ff861690811061253557612535612ec3565b60009182526020909120600490910201546001600160a01b0316836122df565b505b80612561816130b0565b915050612304565b600260015414156125bc5760405162461bcd60e51b815260206004820152601f60248201527f5265656e7472616e637947756172643a207265656e7472616e742063616c6c006044820152606401610607565b6002600155565b6040516001600160a01b0380851660248301528316604482015260648101829052611cea9085906323b872dd60e01b906084015b60408051601f198184030181529190526020810180516001600160e01b03166001600160e01b031990931692909217909152612739565b6040516001600160a01b038316602482015260448101829052611b9e90849063a9059cbb60e01b906064016125f7565b6065546001600160a01b031633146111fd5760405162461bcd60e51b815260206004820181905260248201527f4f776e61626c653a2063616c6c6572206973206e6f7420746865206f776e65726044820152606401610607565b606580546001600160a01b038381166001600160a01b0319831681179093556040519116919082907f8be0079c531659141344cd1fd0a4f28419497f9722a3daafe3b4186f6b6457e090600090a35050565b600054610100900460ff166127315760405162461bcd60e51b81526004016106079061312d565b6111fd61280b565b600061278e826040518060400160405280602081526020017f5361666545524332303a206c6f772d6c6576656c2063616c6c206661696c6564815250856001600160a01b031661283b9092919063ffffffff16565b805190915015611b9e57808060200190518101906127ac9190613178565b611b9e5760405162461bcd60e51b815260206004820152602a60248201527f5361666545524332303a204552433230206f7065726174696f6e20646964206e6044820152691bdd081cdd58d8d9595960b21b6064820152608401610607565b600054610100900460ff166128325760405162461bcd60e51b81526004016106079061312d565b6111fd336126b8565b606061284a8484600085612852565b949350505050565b6060824710156128b35760405162461bcd60e51b815260206004820152602660248201527f416464726573733a20696e73756666696369656e742062616c616e636520666f6044820152651c8818d85b1b60d21b6064820152608401610607565b600080866001600160a01b031685876040516128cf91906131c1565b60006040518083038185875af1925050503d806000811461290c576040519150601f19603f3d011682016040523d82523d6000602084013e612911565b606091505b50915091506129228783838761292d565b979650505050505050565b60608315612999578251612992576001600160a01b0385163b6129925760405162461bcd60e51b815260206004820152601d60248201527f416464726573733a2063616c6c20746f206e6f6e2d636f6e74726163740000006044820152606401610607565b508161284a565b61284a83838151156129ae5781518083602001fd5b8060405162461bcd60e51b815260040161060791906131dd565b80151581146122dc57600080fd5b6000806000606084860312156129eb57600080fd5b83359250602084013591506040840135612a04816129c8565b809150509250925092565b600060208284031215612a2157600080fd5b81356001600160e01b031981168114612a3957600080fd5b9392505050565b60008060408385031215612a5357600080fd5b50508035926020909101359150565b80356001600160a01b0381168114612a7957600080fd5b919050565b600060208284031215612a9057600080fd5b612a3982612a62565b600060208284031215612aab57600080fd5b5035919050565b634e487b7160e01b600052602160045260246000fd5b60028110612ad857612ad8612ab2565b9052565b898152602081018990526001600160a01b03888116604083015261ffff88166060830152610120820190612b136080840189612ac8565b8660a08401528560c084015280851660e0840152808416610100840152509a9950505050505050505050565b803561ffff81168114612a7957600080fd5b60008060408385031215612b6457600080fd5b82359150612b7460208401612b3f565b90509250929050565b6001600160a01b038616815261ffff85166020820152604081018490526060810183905260a0810160048310612bb557612bb5612ab2565b8260808301529695505050505050565b600080600060608486031215612bda57600080fd5b83359250612bea60208501612b3f565b9150604084013590509250925092565b600080600080600080600060e0888a031215612c1557600080fd5b87359650612c2560208901612a62565b9550612c3360408901612b3f565b945060608801359350612c4860808901612a62565b925060a0880135915060c088013560028110612c6357600080fd5b8091505092959891949750929550565b60008060408385031215612c8657600080fd5b82359150612b7460208401612a62565b60008083601f840112612ca857600080fd5b50813567ffffffffffffffff811115612cc057600080fd5b6020830191508360208260051b8501011115612cdb57600080fd5b9250929050565b60008083601f840112612cf457600080fd5b50813567ffffffffffffffff811115612d0c57600080fd5b602083019150836020828501011115612cdb57600080fd5b60008060008060008060008060a0898b031215612d4057600080fd5b612d4989612a62565b9750612d5760208a01612a62565b9650604089013567ffffffffffffffff80821115612d7457600080fd5b612d808c838d01612c96565b909850965060608b0135915080821115612d9957600080fd5b612da58c838d01612c96565b909650945060808b0135915080821115612dbe57600080fd5b50612dcb8b828c01612ce2565b999c989b5096995094979396929594505050565b60008060008060408587031215612df557600080fd5b843567ffffffffffffffff80821115612e0d57600080fd5b612e1988838901612c96565b90965094506020870135915080821115612e3257600080fd5b50612e3f87828801612c96565b95989497509550505050565b60008060008060008060a08789031215612e6457600080fd5b612e6d87612a62565b9550612e7b60208801612a62565b94506040870135935060608701359250608087013567ffffffffffffffff811115612ea557600080fd5b612eb189828a01612ce2565b979a9699509497509295939492505050565b634e487b7160e01b600052603260045260246000fd5b6020808252600c908201526b63616e742070726f6365737360a01b604082015260600190565b634e487b7160e01b600052601160045260246000fd5b6000816000190483118215151615612f2f57612f2f612eff565b500290565b6020808252600f908201526e151c985b9cd9995c8811985a5b1959608a1b604082015260600190565b600082612f7a57634e487b7160e01b600052601260045260246000fd5b500490565b6001600160a01b039485168152929093166020830152604082015261ffff909116606082015260a06080820181905260009082015260c00190565b600082821015612fcc57612fcc612eff565b500390565b600061ffff83811690831681811015612fec57612fec612eff565b039392505050565b60006020828403121561300657600080fd5b5051919050565b600060001982141561302157613021612eff565b5060010190565b8881526001600160a01b03888116602083015261ffff881660408301526101008201906130586060840189612ac8565b8660808401528560a084015280851660c084015280841660e0840152509998505050505050505050565b634e487b7160e01b600052604160045260246000fd5b600082198211156130ab576130ab612eff565b500190565b600060ff821660ff8114156130c7576130c7612eff565b60010192915050565b81835260006001600160fb1b038311156130e957600080fd5b8260051b8083602087013760009401602001938452509192915050565b60408152600061311a6040830186886130d0565b82810360208401526129228185876130d0565b6020808252602b908201527f496e697469616c697a61626c653a20636f6e7472616374206973206e6f74206960408201526a6e697469616c697a696e6760a81b606082015260800190565b60006020828403121561318a57600080fd5b8151612a39816129c8565b60005b838110156131b0578181015183820152602001613198565b83811115611cea5750506000910152565b600082516131d3818460208701613195565b9190910192915050565b60208152600082518060208401526131fc816040850160208701613195565b601f01601f1916919091016040019291505056fea264697066735822122030db63df14eea6fd1580e3fd439b2251a06d19382a4d35c28d916c56fea0c9d064736f6c63430008090033",
  "linkReferences": {},
  "deployedLinkReferences": {}
}