{
  "_format": "hh-sol-artifact-1",
  "contractName": "PokeCardERC1155",
  "sourceName": "contracts/PokeCardERC1155.sol",
  "abi": [
    {
      "inputs": [],
      "stateMutability": "nonpayable",
      "type": "constructor"
    },
    {
      "anonymous": false,
      "inputs": [
        {
          "indexed": true,
          "internalType": "address",
          "name": "account",
          "type": "address"
        },
        {
          "indexed": true,
          "internalType": "address",
          "name": "operator",
          "type": "address"
        },
        {
          "indexed": false,
          "internalType": "bool",
          "name": "approved",
          "type": "bool"
        }
      ],
      "name": "ApprovalForAll",
      "type": "event"
    },
    {
      "anonymous": false,
      "inputs": [
        {
          "indexed": true,
          "internalType": "address",
          "name": "previousOwner",
          "type": "address"
        },
        {
          "indexed": true,
          "internalType": "address",
          "name": "newOwner",
          "type": "address"
        }
      ],
      "name": "OwnershipTransferred",
      "type": "event"
    },
    {
      "anonymous": false,
      "inputs": [
        {
          "indexed": true,
          "internalType": "address",
          "name": "operator",
          "type": "address"
        },
        {
          "indexed": true,
          "internalType": "address",
          "name": "from",
          "type": "address"
        },
        {
          "indexed": true,
          "internalType": "address",
          "name": "to",
          "type": "address"
        },
        {
          "indexed": false,
          "internalType": "uint256[]",
          "name": "ids",
          "type": "uint256[]"
        },
        {
          "indexed": false,
          "internalType": "uint256[]",
          "name": "values",
          "type": "uint256[]"
        }
      ],
      "name": "TransferBatch",
      "type": "event"
    },
    {
      "anonymous": false,
      "inputs": [
        {
          "indexed": true,
          "internalType": "address",
          "name": "operator",
          "type": "address"
        },
        {
          "indexed": true,
          "internalType": "address",
          "name": "from",
          "type": "address"
        },
        {
          "indexed": true,
          "internalType": "address",
          "name": "to",
          "type": "address"
        },
        {
          "indexed": false,
          "internalType": "uint256",
          "name": "id",
          "type": "uint256"
        },
        {
          "indexed": false,
          "internalType": "uint256",
          "name": "value",
          "type": "uint256"
        }
      ],
      "name": "TransferSingle",
      "type": "event"
    },
    {
      "anonymous": false,
      "inputs": [
        {
          "indexed": false,
          "internalType": "string",
          "name": "value",
          "type": "string"
        },
        {
          "indexed": true,
          "internalType": "uint256",
          "name": "id",
          "type": "uint256"
        }
      ],
      "name": "URI",
      "type": "event"
    },
    {
      "inputs": [],
      "name": "_currentTokenID",
      "outputs": [
        {
          "internalType": "uint256",
          "name": "",
          "type": "uint256"
        }
      ],
      "stateMutability": "view",
      "type": "function"
    },
    {
      "inputs": [
        {
          "internalType": "address",
          "name": "account",
          "type": "address"
        },
        {
          "internalType": "uint256",
          "name": "id",
          "type": "uint256"
        }
      ],
      "name": "balanceOf",
      "outputs": [
        {
          "internalType": "uint256",
          "name": "",
          "type": "uint256"
        }
      ],
      "stateMutability": "view",
      "type": "function"
    },
    {
      "inputs": [
        {
          "internalType": "address[]",
          "name": "accounts",
          "type": "address[]"
        },
        {
          "internalType": "uint256[]",
          "name": "ids",
          "type": "uint256[]"
        }
      ],
      "name": "balanceOfBatch",
      "outputs": [
        {
          "internalType": "uint256[]",
          "name": "",
          "type": "uint256[]"
        }
      ],
      "stateMutability": "view",
      "type": "function"
    },
    {
      "inputs": [
        {
          "internalType": "uint256",
          "name": "_id",
          "type": "uint256"
        },
        {
          "internalType": "uint256",
          "name": "_amount",
          "type": "uint256"
        }
      ],
      "name": "burn",
      "outputs": [],
      "stateMutability": "nonpayable",
      "type": "function"
    },
    {
      "inputs": [
        {
          "internalType": "uint256[]",
          "name": "_ids",
          "type": "uint256[]"
        },
        {
          "internalType": "uint256[]",
          "name": "_amounts",
          "type": "uint256[]"
        }
      ],
      "name": "burnBatch",
      "outputs": [],
      "stateMutability": "nonpayable",
      "type": "function"
    },
    {
      "inputs": [
        {
          "internalType": "address",
          "name": "_from",
          "type": "address"
        },
        {
          "internalType": "uint256[]",
          "name": "_burnIds",
          "type": "uint256[]"
        },
        {
          "internalType": "uint256[]",
          "name": "_burnAmounts",
          "type": "uint256[]"
        },
        {
          "internalType": "uint256[]",
          "name": "_mintIds",
          "type": "uint256[]"
        },
        {
          "internalType": "uint256[]",
          "name": "_mintAmounts",
          "type": "uint256[]"
        }
      ],
      "name": "burnForMint",
      "outputs": [],
      "stateMutability": "nonpayable",
      "type": "function"
    },
    {
      "inputs": [
        {
          "internalType": "address",
          "name": "account",
          "type": "address"
        },
        {
          "internalType": "address",
          "name": "operator",
          "type": "address"
        }
      ],
      "name": "isApprovedForAll",
      "outputs": [
        {
          "internalType": "bool",
          "name": "",
          "type": "bool"
        }
      ],
      "stateMutability": "view",
      "type": "function"
    },
    {
      "inputs": [
        {
          "internalType": "address",
          "name": "owner",
          "type": "address"
        }
      ],
      "name": "listOfTokenIdsOwned",
      "outputs": [
        {
          "internalType": "uint256[]",
          "name": "",
          "type": "uint256[]"
        }
      ],
      "stateMutability": "view",
      "type": "function"
    },
    {
      "inputs": [
        {
          "internalType": "address",
          "name": "_to",
          "type": "address"
        },
        {
          "internalType": "uint256",
          "name": "_amount",
          "type": "uint256"
        }
      ],
      "name": "mint",
      "outputs": [],
      "stateMutability": "nonpayable",
      "type": "function"
    },
    {
      "inputs": [
        {
          "internalType": "address",
          "name": "_to",
          "type": "address"
        },
        {
          "internalType": "uint256[]",
          "name": "_ids",
          "type": "uint256[]"
        },
        {
          "internalType": "uint256[]",
          "name": "_amounts",
          "type": "uint256[]"
        }
      ],
      "name": "mintBatch",
      "outputs": [],
      "stateMutability": "nonpayable",
      "type": "function"
    },
    {
      "inputs": [
        {
          "internalType": "address",
          "name": "_to",
          "type": "address"
        },
        {
          "internalType": "uint256",
          "name": "_id",
          "type": "uint256"
        },
        {
          "internalType": "uint256",
          "name": "_amount",
          "type": "uint256"
        }
      ],
      "name": "mintById",
      "outputs": [],
      "stateMutability": "nonpayable",
      "type": "function"
    },
    {
      "inputs": [],
      "name": "name",
      "outputs": [
        {
          "internalType": "string",
          "name": "",
          "type": "string"
        }
      ],
      "stateMutability": "view",
      "type": "function"
    },
    {
      "inputs": [],
      "name": "owner",
      "outputs": [
        {
          "internalType": "address",
          "name": "",
          "type": "address"
        }
      ],
      "stateMutability": "view",
      "type": "function"
    },
    {
      "inputs": [],
      "name": "renounceOwnership",
      "outputs": [],
      "stateMutability": "nonpayable",
      "type": "function"
    },
    {
      "inputs": [
        {
          "internalType": "address",
          "name": "from",
          "type": "address"
        },
        {
          "internalType": "address",
          "name": "to",
          "type": "address"
        },
        {
          "internalType": "uint256[]",
          "name": "ids",
          "type": "uint256[]"
        },
        {
          "internalType": "uint256[]",
          "name": "amounts",
          "type": "uint256[]"
        },
        {
          "internalType": "bytes",
          "name": "data",
          "type": "bytes"
        }
      ],
      "name": "safeBatchTransferFrom",
      "outputs": [],
      "stateMutability": "nonpayable",
      "type": "function"
    },
    {
      "inputs": [
        {
          "internalType": "address",
          "name": "from",
          "type": "address"
        },
        {
          "internalType": "address",
          "name": "to",
          "type": "address"
        },
        {
          "internalType": "uint256",
          "name": "id",
          "type": "uint256"
        },
        {
          "internalType": "uint256",
          "name": "amount",
          "type": "uint256"
        },
        {
          "internalType": "bytes",
          "name": "data",
          "type": "bytes"
        }
      ],
      "name": "safeTransferFrom",
      "outputs": [],
      "stateMutability": "nonpayable",
      "type": "function"
    },
    {
      "inputs": [
        {
          "internalType": "address",
          "name": "operator",
          "type": "address"
        },
        {
          "internalType": "bool",
          "name": "approved",
          "type": "bool"
        }
      ],
      "name": "setApprovalForAll",
      "outputs": [],
      "stateMutability": "nonpayable",
      "type": "function"
    },
    {
      "inputs": [
        {
          "internalType": "uint256",
          "name": "_id",
          "type": "uint256"
        },
        {
          "internalType": "string",
          "name": "_uri",
          "type": "string"
        }
      ],
      "name": "setURI",
      "outputs": [],
      "stateMutability": "nonpayable",
      "type": "function"
    },
    {
      "inputs": [
        {
          "internalType": "bytes4",
          "name": "interfaceId",
          "type": "bytes4"
        }
      ],
      "name": "supportsInterface",
      "outputs": [
        {
          "internalType": "bool",
          "name": "",
          "type": "bool"
        }
      ],
      "stateMutability": "view",
      "type": "function"
    },
    {
      "inputs": [],
      "name": "symbol",
      "outputs": [
        {
          "internalType": "string",
          "name": "",
          "type": "string"
        }
      ],
      "stateMutability": "view",
      "type": "function"
    },
    {
      "inputs": [
        {
          "internalType": "address",
          "name": "",
          "type": "address"
        },
        {
          "internalType": "uint256",
          "name": "",
          "type": "uint256"
        }
      ],
      "name": "tokenIdsOwned",
      "outputs": [
        {
          "internalType": "uint256",
          "name": "",
          "type": "uint256"
        }
      ],
      "stateMutability": "view",
      "type": "function"
    },
    {
      "inputs": [
        {
          "internalType": "uint256",
          "name": "",
          "type": "uint256"
        }
      ],
      "name": "tokenURI",
      "outputs": [
        {
          "internalType": "string",
          "name": "",
          "type": "string"
        }
      ],
      "stateMutability": "view",
      "type": "function"
    },
    {
      "inputs": [
        {
          "internalType": "address",
          "name": "newOwner",
          "type": "address"
        }
      ],
      "name": "transferOwnership",
      "outputs": [],
      "stateMutability": "nonpayable",
      "type": "function"
    },
    {
      "inputs": [
        {
          "internalType": "uint256",
          "name": "_id",
          "type": "uint256"
        }
      ],
      "name": "uri",
      "outputs": [
        {
          "internalType": "string",
          "name": "",
          "type": "string"
        }
      ],
      "stateMutability": "view",
      "type": "function"
    }
  ],
  "bytecode": "0x608060405260006006553480156200001657600080fd5b506040805160208101909152600081526200003181620000a8565b506200003d33620000c1565b60408051808201909152600d8082526c506f6b656d6f6e20436172647360981b6020909201918252620000739160049162000113565b5060408051808201909152600480825263504f4b4560e01b6020909201918252620000a19160059162000113565b50620001f6565b8051620000bd90600290602084019062000113565b5050565b600380546001600160a01b038381166001600160a01b0319831681179093556040519116919082907f8be0079c531659141344cd1fd0a4f28419497f9722a3daafe3b4186f6b6457e090600090a35050565b8280546200012190620001b9565b90600052602060002090601f01602090048101928262000145576000855562000190565b82601f106200016057805160ff191683800117855562000190565b8280016001018555821562000190579182015b828111156200019057825182559160200191906001019062000173565b506200019e929150620001a2565b5090565b5b808211156200019e5760008155600101620001a3565b600181811c90821680620001ce57607f821691505b60208210811415620001f057634e487b7160e01b600052602260045260246000fd5b50919050565b61226280620002066000396000f3fe608060405234801561001057600080fd5b50600436106101575760003560e01c8063832efb5a116100c3578063b390c0ab1161007c578063b390c0ab146102ce578063c87b56dd146102e1578063d81d0a15146102f4578063e985e9c514610307578063f242432a14610343578063f2fde38b1461035657600080fd5b8063832efb5a1461026957806383ca4b6f14610272578063862440e2146102855780638da5cb5b1461029857806395d89b41146102b3578063a22cb465146102bb57600080fd5b8063300343a811610115578063300343a8146101f55780633418ff671461021557806340c10f19146102285780634e1273f41461023b578063510f41041461024e578063715018a61461026157600080fd5b8062fdd58e1461015c57806301ffc9a71461018257806306fdde03146101a55780630e89341c146101ba5780631cc0a42c146101cd5780632eb2c2d6146101e2575b600080fd5b61016f61016a3660046116cc565b610369565b6040519081526020015b60405180910390f35b61019561019036600461170c565b6103ff565b6040519015158152602001610179565b6101ad610451565b604051610179919061177d565b6101ad6101c8366004611790565b6104df565b6101e06101db3660046117a9565b610581565b005b6101e06101f0366004611932565b6105d1565b6102086102033660046119dc565b61061d565b6040516101799190611a32565b61016f6102233660046116cc565b610688565b6101e06102363660046116cc565b6106b9565b610208610249366004611a45565b610726565b6101e061025c366004611b10565b610850565b6101e061087e565b61016f60065481565b6101e0610280366004611bc1565b610892565b6101e0610293366004611c0e565b6108a1565b6003546040516001600160a01b039091168152602001610179565b6101ad610905565b6101e06102c9366004611c5f565b610912565b6101e06102dc366004611c9b565b61091d565b6101ad6102ef366004611790565b610928565b6101e0610302366004611cbd565b610941565b610195610315366004611d31565b6001600160a01b03918216600090815260016020908152604080832093909416825291909152205460ff1690565b6101e0610351366004611d64565b6109d3565b6101e06103643660046119dc565b610a18565b60006001600160a01b0383166103d95760405162461bcd60e51b815260206004820152602a60248201527f455243313135353a2061646472657373207a65726f206973206e6f742061207660448201526930b634b21037bbb732b960b11b60648201526084015b60405180910390fd5b506000908152602081815260408083206001600160a01b03949094168352929052205490565b60006001600160e01b03198216636cdb3d1360e11b148061043057506001600160e01b031982166303a24d0760e21b145b8061044b57506301ffc9a760e01b6001600160e01b03198316145b92915050565b6004805461045e90611dc9565b80601f016020809104026020016040519081016040528092919081815260200182805461048a90611dc9565b80156104d75780601f106104ac576101008083540402835291602001916104d7565b820191906000526020600020905b8154815290600101906020018083116104ba57829003601f168201915b505050505081565b60008181526007602052604090208054606091906104fc90611dc9565b80601f016020809104026020016040519081016040528092919081815260200182805461052890611dc9565b80156105755780601f1061054a57610100808354040283529160200191610575565b820191906000526020600020905b81548152906001019060200180831161055857829003601f168201915b50505050509050919050565b610589610a91565b6105a483838360405180602001604052806000815250610aeb565b506001600160a01b0390911660009081526008602090815260408220805460018101825590835291200155565b6001600160a01b0385163314806105ed57506105ed8533610315565b6106095760405162461bcd60e51b81526004016103d090611e04565b6106168585858585610bc5565b5050505050565b6001600160a01b03811660009081526008602090815260409182902080548351818402810184019094528084526060939283018282801561057557602002820191906000526020600020905b8154815260200190600101908083116106695750505050509050919050565b600860205281600052604060002081815481106106a457600080fd5b90600052602060002001600091509150505481565b6106c1610a91565b6106de826006548360405180602001604052806000815250610aeb565b6001600160a01b038216600090815260086020908152604082206006805482546001810184559285529284209091019190915580549161071d83611e68565b91905055505050565b6060815183511461078b5760405162461bcd60e51b815260206004820152602960248201527f455243313135353a206163636f756e747320616e6420696473206c656e677468604482015268040dad2e6dac2e8c6d60bb1b60648201526084016103d0565b6000835167ffffffffffffffff8111156107a7576107a76117dc565b6040519080825280602002602001820160405280156107d0578160200160208202803683370190505b50905060005b84518110156108485761081b8582815181106107f4576107f4611e83565b602002602001015185838151811061080e5761080e611e83565b6020026020010151610369565b82828151811061082d5761082d611e83565b602090810291909101015261084181611e68565b90506107d6565b509392505050565b610858610a91565b610863858585610d61565b61061685838360405180602001604052806000815250610eeb565b610886610a91565b6108906000611036565b565b61089d338383610d61565b5050565b6108a9610a91565b600082815260076020908152604090912082516108c892840190611617565b50817f6bb7ff708619ba0610cba295a58592e0451dee2622938c8755667688daf3529b826040516108f9919061177d565b60405180910390a25050565b6005805461045e90611dc9565b61089d338383611088565b61089d338383611169565b6007602052600090815260409020805461045e90611dc9565b610949610a91565b61096483838360405180602001604052806000815250610eeb565b60005b82518110156109cd576001600160a01b0384166000908152600860205260409020835184908390811061099c5761099c611e83565b60209081029190910181015182546001810184556000938452919092200155806109c581611e68565b915050610967565b50505050565b6001600160a01b0385163314806109ef57506109ef8533610315565b610a0b5760405162461bcd60e51b81526004016103d090611e04565b610616858585858561126d565b610a20610a91565b6001600160a01b038116610a855760405162461bcd60e51b815260206004820152602660248201527f4f776e61626c653a206e6577206f776e657220697320746865207a65726f206160448201526564647265737360d01b60648201526084016103d0565b610a8e81611036565b50565b6003546001600160a01b031633146108905760405162461bcd60e51b815260206004820181905260248201527f4f776e61626c653a2063616c6c6572206973206e6f7420746865206f776e657260448201526064016103d0565b6001600160a01b038416610b115760405162461bcd60e51b81526004016103d090611e99565b336000610b1d85611397565b90506000610b2a85611397565b90506000868152602081815260408083206001600160a01b038b16845290915281208054879290610b5c908490611eda565b909155505060408051878152602081018790526001600160a01b03808a1692600092918716917fc3d58168c5ae7397731d063d5bbf3d657854427343f4c083240f7aacaa2d0f62910160405180910390a4610bbc836000898989896113e2565b50505050505050565b8151835114610be65760405162461bcd60e51b81526004016103d090611ef2565b6001600160a01b038416610c0c5760405162461bcd60e51b81526004016103d090611f3a565b3360005b8451811015610cf3576000858281518110610c2d57610c2d611e83565b602002602001015190506000858381518110610c4b57610c4b611e83565b602090810291909101810151600084815280835260408082206001600160a01b038e168352909352919091205490915081811015610c9b5760405162461bcd60e51b81526004016103d090611f7f565b6000838152602081815260408083206001600160a01b038e8116855292528083208585039055908b16825281208054849290610cd8908490611eda565b9250508190555050505080610cec90611e68565b9050610c10565b50846001600160a01b0316866001600160a01b0316826001600160a01b03167f4a39dc06d4c0dbc64b70af90fd698a233a518aa5d07e595d983b8c0526c8f7fb8787604051610d43929190611fc9565b60405180910390a4610d5981878787878761154d565b505050505050565b6001600160a01b038316610d875760405162461bcd60e51b81526004016103d090611ff7565b8051825114610da85760405162461bcd60e51b81526004016103d090611ef2565b604080516020810190915260009081905233905b8351811015610e7e576000848281518110610dd957610dd9611e83565b602002602001015190506000848381518110610df757610df7611e83565b602090810291909101810151600084815280835260408082206001600160a01b038c168352909352919091205490915081811015610e475760405162461bcd60e51b81526004016103d09061203a565b6000928352602083815260408085206001600160a01b038b1686529091529092209103905580610e7681611e68565b915050610dbc565b5060006001600160a01b0316846001600160a01b0316826001600160a01b03167f4a39dc06d4c0dbc64b70af90fd698a233a518aa5d07e595d983b8c0526c8f7fb8686604051610ecf929190611fc9565b60405180910390a46040805160208101909152600090526109cd565b6001600160a01b038416610f115760405162461bcd60e51b81526004016103d090611e99565b8151835114610f325760405162461bcd60e51b81526004016103d090611ef2565b3360005b8451811015610fce57838181518110610f5157610f51611e83565b6020026020010151600080878481518110610f6e57610f6e611e83565b602002602001015181526020019081526020016000206000886001600160a01b03166001600160a01b031681526020019081526020016000206000828254610fb69190611eda565b90915550819050610fc681611e68565b915050610f36565b50846001600160a01b031660006001600160a01b0316826001600160a01b03167f4a39dc06d4c0dbc64b70af90fd698a233a518aa5d07e595d983b8c0526c8f7fb878760405161101f929190611fc9565b60405180910390a46106168160008787878761154d565b600380546001600160a01b038381166001600160a01b0319831681179093556040519116919082907f8be0079c531659141344cd1fd0a4f28419497f9722a3daafe3b4186f6b6457e090600090a35050565b816001600160a01b0316836001600160a01b031614156110fc5760405162461bcd60e51b815260206004820152602960248201527f455243313135353a2073657474696e6720617070726f76616c20737461747573604482015268103337b91039b2b63360b91b60648201526084016103d0565b6001600160a01b03838116600081815260016020908152604080832094871680845294825291829020805460ff191686151590811790915591519182527f17307eab39ab6107e8899845ad3d59bd9653f200f220920489ca2b5937696c31910160405180910390a3505050565b6001600160a01b03831661118f5760405162461bcd60e51b81526004016103d090611ff7565b33600061119b84611397565b905060006111a884611397565b60408051602080820183526000918290528882528181528282206001600160a01b038b16835290522054909150848110156111f55760405162461bcd60e51b81526004016103d09061203a565b6000868152602081815260408083206001600160a01b038b81168086529184528285208a8703905582518b81529384018a90529092908816917fc3d58168c5ae7397731d063d5bbf3d657854427343f4c083240f7aacaa2d0f62910160405180910390a4604080516020810190915260009052610bbc565b6001600160a01b0384166112935760405162461bcd60e51b81526004016103d090611f3a565b33600061129f85611397565b905060006112ac85611397565b90506000868152602081815260408083206001600160a01b038c168452909152902054858110156112ef5760405162461bcd60e51b81526004016103d090611f7f565b6000878152602081815260408083206001600160a01b038d8116855292528083208985039055908a1682528120805488929061132c908490611eda565b909155505060408051888152602081018890526001600160a01b03808b16928c821692918816917fc3d58168c5ae7397731d063d5bbf3d657854427343f4c083240f7aacaa2d0f62910160405180910390a461138c848a8a8a8a8a6113e2565b505050505050505050565b604080516001808252818301909252606091600091906020808301908036833701905050905082816000815181106113d1576113d1611e83565b602090810291909101015292915050565b6001600160a01b0384163b15610d595760405163f23a6e6160e01b81526001600160a01b0385169063f23a6e6190611426908990899088908890889060040161207e565b602060405180830381600087803b15801561144057600080fd5b505af1925050508015611470575060408051601f3d908101601f1916820190925261146d918101906120c3565b60015b61151d5761147c6120e0565b806308c379a014156114b657506114916120fc565b8061149c57506114b8565b8060405162461bcd60e51b81526004016103d0919061177d565b505b60405162461bcd60e51b815260206004820152603460248201527f455243313135353a207472616e7366657220746f206e6f6e2d455243313135356044820152732932b1b2b4bb32b91034b6b83632b6b2b73a32b960611b60648201526084016103d0565b6001600160e01b0319811663f23a6e6160e01b14610bbc5760405162461bcd60e51b81526004016103d090612186565b6001600160a01b0384163b15610d595760405163bc197c8160e01b81526001600160a01b0385169063bc197c819061159190899089908890889088906004016121ce565b602060405180830381600087803b1580156115ab57600080fd5b505af19250505080156115db575060408051601f3d908101601f191682019092526115d8918101906120c3565b60015b6115e75761147c6120e0565b6001600160e01b0319811663bc197c8160e01b14610bbc5760405162461bcd60e51b81526004016103d090612186565b82805461162390611dc9565b90600052602060002090601f016020900481019282611645576000855561168b565b82601f1061165e57805160ff191683800117855561168b565b8280016001018555821561168b579182015b8281111561168b578251825591602001919060010190611670565b5061169792915061169b565b5090565b5b80821115611697576000815560010161169c565b80356001600160a01b03811681146116c757600080fd5b919050565b600080604083850312156116df57600080fd5b6116e8836116b0565b946020939093013593505050565b6001600160e01b031981168114610a8e57600080fd5b60006020828403121561171e57600080fd5b8135611729816116f6565b9392505050565b6000815180845260005b818110156117565760208185018101518683018201520161173a565b81811115611768576000602083870101525b50601f01601f19169290920160200192915050565b6020815260006117296020830184611730565b6000602082840312156117a257600080fd5b5035919050565b6000806000606084860312156117be57600080fd5b6117c7846116b0565b95602085013595506040909401359392505050565b634e487b7160e01b600052604160045260246000fd5b601f8201601f1916810167ffffffffffffffff81118282101715611818576118186117dc565b6040525050565b600067ffffffffffffffff821115611839576118396117dc565b5060051b60200190565b600082601f83011261185457600080fd5b813560206118618261181f565b60405161186e82826117f2565b83815260059390931b850182019282810191508684111561188e57600080fd5b8286015b848110156118a95780358352918301918301611892565b509695505050505050565b600067ffffffffffffffff8311156118ce576118ce6117dc565b6040516118e5601f8501601f1916602001826117f2565b8091508381528484840111156118fa57600080fd5b83836020830137600060208583010152509392505050565b600082601f83011261192357600080fd5b611729838335602085016118b4565b600080600080600060a0868803121561194a57600080fd5b611953866116b0565b9450611961602087016116b0565b9350604086013567ffffffffffffffff8082111561197e57600080fd5b61198a89838a01611843565b945060608801359150808211156119a057600080fd5b6119ac89838a01611843565b935060808801359150808211156119c257600080fd5b506119cf88828901611912565b9150509295509295909350565b6000602082840312156119ee57600080fd5b611729826116b0565b600081518084526020808501945080840160005b83811015611a2757815187529582019590820190600101611a0b565b509495945050505050565b60208152600061172960208301846119f7565b60008060408385031215611a5857600080fd5b823567ffffffffffffffff80821115611a7057600080fd5b818501915085601f830112611a8457600080fd5b81356020611a918261181f565b604051611a9e82826117f2565b83815260059390931b8501820192828101915089841115611abe57600080fd5b948201945b83861015611ae357611ad4866116b0565b82529482019490820190611ac3565b96505086013592505080821115611af957600080fd5b50611b0685828601611843565b9150509250929050565b600080600080600060a08688031215611b2857600080fd5b611b31866116b0565b9450602086013567ffffffffffffffff80821115611b4e57600080fd5b611b5a89838a01611843565b95506040880135915080821115611b7057600080fd5b611b7c89838a01611843565b94506060880135915080821115611b9257600080fd5b611b9e89838a01611843565b93506080880135915080821115611bb457600080fd5b506119cf88828901611843565b60008060408385031215611bd457600080fd5b823567ffffffffffffffff80821115611bec57600080fd5b611bf886838701611843565b93506020850135915080821115611af957600080fd5b60008060408385031215611c2157600080fd5b82359150602083013567ffffffffffffffff811115611c3f57600080fd5b8301601f81018513611c5057600080fd5b611b06858235602084016118b4565b60008060408385031215611c7257600080fd5b611c7b836116b0565b915060208301358015158114611c9057600080fd5b809150509250929050565b60008060408385031215611cae57600080fd5b50508035926020909101359150565b600080600060608486031215611cd257600080fd5b611cdb846116b0565b9250602084013567ffffffffffffffff80821115611cf857600080fd5b611d0487838801611843565b93506040860135915080821115611d1a57600080fd5b50611d2786828701611843565b9150509250925092565b60008060408385031215611d4457600080fd5b611d4d836116b0565b9150611d5b602084016116b0565b90509250929050565b600080600080600060a08688031215611d7c57600080fd5b611d85866116b0565b9450611d93602087016116b0565b93506040860135925060608601359150608086013567ffffffffffffffff811115611dbd57600080fd5b6119cf88828901611912565b600181811c90821680611ddd57607f821691505b60208210811415611dfe57634e487b7160e01b600052602260045260246000fd5b50919050565b6020808252602e908201527f455243313135353a2063616c6c6572206973206e6f7420746f6b656e206f776e60408201526d195c881bdc88185c1c1c9bdd995960921b606082015260800190565b634e487b7160e01b600052601160045260246000fd5b6000600019821415611e7c57611e7c611e52565b5060010190565b634e487b7160e01b600052603260045260246000fd5b60208082526021908201527f455243313135353a206d696e7420746f20746865207a65726f206164647265736040820152607360f81b606082015260800190565b60008219821115611eed57611eed611e52565b500190565b60208082526028908201527f455243313135353a2069647320616e6420616d6f756e7473206c656e677468206040820152670dad2e6dac2e8c6d60c31b606082015260800190565b60208082526025908201527f455243313135353a207472616e7366657220746f20746865207a65726f206164604082015264647265737360d81b606082015260800190565b6020808252602a908201527f455243313135353a20696e73756666696369656e742062616c616e636520666f60408201526939103a3930b739b332b960b11b606082015260800190565b604081526000611fdc60408301856119f7565b8281036020840152611fee81856119f7565b95945050505050565b60208082526023908201527f455243313135353a206275726e2066726f6d20746865207a65726f206164647260408201526265737360e81b606082015260800190565b60208082526024908201527f455243313135353a206275726e20616d6f756e7420657863656564732062616c604082015263616e636560e01b606082015260800190565b6001600160a01b03868116825285166020820152604081018490526060810183905260a0608082018190526000906120b890830184611730565b979650505050505050565b6000602082840312156120d557600080fd5b8151611729816116f6565b600060033d11156120f95760046000803e5060005160e01c5b90565b600060443d101561210a5790565b6040516003193d81016004833e81513d67ffffffffffffffff816024840111818411171561213a57505050505090565b82850191508151818111156121525750505050505090565b843d870101602082850101111561216c5750505050505090565b61217b602082860101876117f2565b509095945050505050565b60208082526028908201527f455243313135353a204552433131353552656365697665722072656a656374656040820152676420746f6b656e7360c01b606082015260800190565b6001600160a01b0386811682528516602082015260a0604082018190526000906121fa908301866119f7565b828103606084015261220c81866119f7565b905082810360808401526122208185611730565b9897505050505050505056fea2646970667358221220a32adfc64aa41cfda3b80189565e22ac95810073a3c0a5d724def80f85021e9864736f6c63430008090033",
  "linkReferences": {},
  "deployedLinkReferences": {}
}