{
  "_format": "hh-sol-artifact-1",
  "contractName": "PokeMarketPlace",
  "sourceName": "contracts/PokeMarketPlace.sol",
  "abi": [
    {
      "anonymous": false,
      "inputs": [
        {
          "indexed": true,
          "internalType": "uint256",
          "name": "orderId",
          "type": "uint256"
        },
        {
          "indexed": false,
          "internalType": "uint256",
          "name": "bidId",
          "type": "uint256"
        },
        {
          "indexed": false,
          "internalType": "uint256",
          "name": "copies",
          "type": "uint256"
        }
      ],
      "name": "BidAccepted",
      "type": "event"
    },
    {
      "anonymous": false,
      "inputs": [
        {
          "indexed": true,
          "internalType": "uint256",
          "name": "orderId",
          "type": "uint256"
        },
        {
          "indexed": false,
          "internalType": "uint256",
          "name": "bidId",
          "type": "uint256"
        }
      ],
      "name": "BidExpired",
      "type": "event"
    },
    {
      "anonymous": false,
      "inputs": [
        {
          "indexed": true,
          "internalType": "uint256",
          "name": "orderId",
          "type": "uint256"
        },
        {
          "indexed": false,
          "internalType": "uint256",
          "name": "bidIndex",
          "type": "uint256"
        },
        {
          "indexed": false,
          "internalType": "address",
          "name": "bidder",
          "type": "address"
        },
        {
          "indexed": false,
          "internalType": "uint16",
          "name": "copies",
          "type": "uint16"
        },
        {
          "indexed": false,
          "internalType": "uint256",
          "name": "pricePerNft",
          "type": "uint256"
        },
        {
          "indexed": false,
          "internalType": "uint256",
          "name": "bidTime",
          "type": "uint256"
        }
      ],
      "name": "BidPlaced",
      "type": "event"
    },
    {
      "anonymous": false,
      "inputs": [
        {
          "indexed": true,
          "internalType": "uint256",
          "name": "orderId",
          "type": "uint256"
        },
        {
          "indexed": false,
          "internalType": "uint256",
          "name": "bidId",
          "type": "uint256"
        }
      ],
      "name": "BidRejected",
      "type": "event"
    },
    {
      "anonymous": false,
      "inputs": [
        {
          "indexed": true,
          "internalType": "uint256",
          "name": "orderId",
          "type": "uint256"
        },
        {
          "indexed": false,
          "internalType": "uint256",
          "name": "bidId",
          "type": "uint256"
        }
      ],
      "name": "BidWithdraw",
      "type": "event"
    },
    {
      "anonymous": false,
      "inputs": [
        {
          "indexed": false,
          "internalType": "uint8",
          "name": "version",
          "type": "uint8"
        }
      ],
      "name": "Initialized",
      "type": "event"
    },
    {
      "anonymous": false,
      "inputs": [
        {
          "indexed": false,
          "internalType": "uint256[]",
          "name": "orderIds",
          "type": "uint256[]"
        },
        {
          "indexed": false,
          "internalType": "uint256[]",
          "name": "copies",
          "type": "uint256[]"
        }
      ],
      "name": "NFTBulkBuy",
      "type": "event"
    },
    {
      "anonymous": false,
      "inputs": [
        {
          "indexed": true,
          "internalType": "uint256",
          "name": "orderId",
          "type": "uint256"
        }
      ],
      "name": "OrderCancelled",
      "type": "event"
    },
    {
      "anonymous": false,
      "inputs": [
        {
          "indexed": true,
          "internalType": "uint256",
          "name": "orderId",
          "type": "uint256"
        },
        {
          "indexed": true,
          "internalType": "uint256",
          "name": "tokenId",
          "type": "uint256"
        },
        {
          "indexed": false,
          "internalType": "uint256",
          "name": "price",
          "type": "uint256"
        },
        {
          "indexed": false,
          "internalType": "address",
          "name": "seller",
          "type": "address"
        },
        {
          "indexed": false,
          "internalType": "uint16",
          "name": "copies",
          "type": "uint16"
        },
        {
          "indexed": false,
          "internalType": "enum PokeMarketPlace.SaleType",
          "name": "saleType",
          "type": "uint8"
        },
        {
          "indexed": false,
          "internalType": "uint256",
          "name": "startTime",
          "type": "uint256"
        },
        {
          "indexed": false,
          "internalType": "uint256",
          "name": "endTime",
          "type": "uint256"
        },
        {
          "indexed": false,
          "internalType": "address",
          "name": "paymentToken",
          "type": "address"
        },
        {
          "indexed": false,
          "internalType": "address",
          "name": "nftContract",
          "type": "address"
        }
      ],
      "name": "OrderCreated",
      "type": "event"
    },
    {
      "anonymous": false,
      "inputs": [
        {
          "indexed": true,
          "internalType": "uint256",
          "name": "orderId",
          "type": "uint256"
        },
        {
          "indexed": false,
          "internalType": "address",
          "name": "buyer",
          "type": "address"
        },
        {
          "indexed": false,
          "internalType": "uint16",
          "name": "copies",
          "type": "uint16"
        }
      ],
      "name": "OrderPurchased",
      "type": "event"
    },
    {
      "anonymous": false,
      "inputs": [
        {
          "indexed": true,
          "internalType": "address",
          "name": "previousOwner",
          "type": "address"
        },
        {
          "indexed": true,
          "internalType": "address",
          "name": "newOwner",
          "type": "address"
        }
      ],
      "name": "OwnershipTransferred",
      "type": "event"
    },
    {
      "inputs": [
        {
          "internalType": "uint256",
          "name": "orderId",
          "type": "uint256"
        },
        {
          "internalType": "uint256",
          "name": "bidId",
          "type": "uint256"
        }
      ],
      "name": "acceptBid",
      "outputs": [],
      "stateMutability": "nonpayable",
      "type": "function"
    },
    {
      "inputs": [
        {
          "internalType": "address",
          "name": "contractAddress",
          "type": "address"
        }
      ],
      "name": "addNftContractSupport",
      "outputs": [],
      "stateMutability": "nonpayable",
      "type": "function"
    },
    {
      "inputs": [
        {
          "internalType": "address",
          "name": "tokenAddress",
          "type": "address"
        }
      ],
      "name": "addTokenSupport",
      "outputs": [],
      "stateMutability": "nonpayable",
      "type": "function"
    },
    {
      "inputs": [],
      "name": "adminOwner",
      "outputs": [
        {
          "internalType": "address payable",
          "name": "",
          "type": "address"
        }
      ],
      "stateMutability": "view",
      "type": "function"
    },
    {
      "inputs": [
        {
          "internalType": "uint256",
          "name": "",
          "type": "uint256"
        },
        {
          "internalType": "uint256",
          "name": "",
          "type": "uint256"
        }
      ],
      "name": "bids",
      "outputs": [
        {
          "internalType": "address",
          "name": "bidder",
          "type": "address"
        },
        {
          "internalType": "uint16",
          "name": "copies",
          "type": "uint16"
        },
        {
          "internalType": "uint256",
          "name": "price",
          "type": "uint256"
        },
        {
          "internalType": "uint256",
          "name": "timestamp",
          "type": "uint256"
        },
        {
          "internalType": "enum PokeMarketPlace.BidStatus",
          "name": "status",
          "type": "uint8"
        }
      ],
      "stateMutability": "view",
      "type": "function"
    },
    {
      "inputs": [
        {
          "internalType": "uint256[]",
          "name": "orderIds",
          "type": "uint256[]"
        },
        {
          "internalType": "uint256[]",
          "name": "amounts",
          "type": "uint256[]"
        }
      ],
      "name": "bulkBuy",
      "outputs": [],
      "stateMutability": "payable",
      "type": "function"
    },
    {
      "inputs": [
        {
          "internalType": "uint256",
          "name": "orderId",
          "type": "uint256"
        },
        {
          "internalType": "uint16",
          "name": "copies",
          "type": "uint16"
        }
      ],
      "name": "buyNow",
      "outputs": [],
      "stateMutability": "payable",
      "type": "function"
    },
    {
      "inputs": [
        {
          "internalType": "uint256",
          "name": "orderId",
          "type": "uint256"
        }
      ],
      "name": "cancelOrder",
      "outputs": [],
      "stateMutability": "nonpayable",
      "type": "function"
    },
    {
      "inputs": [
        {
          "internalType": "uint256",
          "name": "_platformFees",
          "type": "uint256"
        },
        {
          "internalType": "address",
          "name": "_admin",
          "type": "address"
        }
      ],
      "name": "initialize",
      "outputs": [],
      "stateMutability": "nonpayable",
      "type": "function"
    },
    {
      "inputs": [
        {
          "internalType": "address",
          "name": "",
          "type": "address"
        }
      ],
      "name": "nftContracts",
      "outputs": [
        {
          "internalType": "bool",
          "name": "",
          "type": "bool"
        }
      ],
      "stateMutability": "view",
      "type": "function"
    },
    {
      "inputs": [
        {
          "internalType": "address",
          "name": "operator",
          "type": "address"
        },
        {
          "internalType": "address",
          "name": "from",
          "type": "address"
        },
        {
          "internalType": "uint256[]",
          "name": "ids",
          "type": "uint256[]"
        },
        {
          "internalType": "uint256[]",
          "name": "values",
          "type": "uint256[]"
        },
        {
          "internalType": "bytes",
          "name": "data",
          "type": "bytes"
        }
      ],
      "name": "onERC1155BatchReceived",
      "outputs": [
        {
          "internalType": "bytes4",
          "name": "",
          "type": "bytes4"
        }
      ],
      "stateMutability": "pure",
      "type": "function"
    },
    {
      "inputs": [
        {
          "internalType": "address",
          "name": "",
          "type": "address"
        },
        {
          "internalType": "address",
          "name": "",
          "type": "address"
        },
        {
          "internalType": "uint256",
          "name": "",
          "type": "uint256"
        },
        {
          "internalType": "uint256",
          "name": "",
          "type": "uint256"
        },
        {
          "internalType": "bytes",
          "name": "",
          "type": "bytes"
        }
      ],
      "name": "onERC1155Received",
      "outputs": [
        {
          "internalType": "bytes4",
          "name": "",
          "type": "bytes4"
        }
      ],
      "stateMutability": "pure",
      "type": "function"
    },
    {
      "inputs": [
        {
          "internalType": "uint256",
          "name": "",
          "type": "uint256"
        }
      ],
      "name": "order",
      "outputs": [
        {
          "internalType": "uint256",
          "name": "tokenId",
          "type": "uint256"
        },
        {
          "internalType": "uint256",
          "name": "price",
          "type": "uint256"
        },
        {
          "internalType": "address",
          "name": "seller",
          "type": "address"
        },
        {
          "internalType": "uint16",
          "name": "copies",
          "type": "uint16"
        },
        {
          "internalType": "enum PokeMarketPlace.SaleType",
          "name": "saleType",
          "type": "uint8"
        },
        {
          "internalType": "uint256",
          "name": "startTime",
          "type": "uint256"
        },
        {
          "internalType": "uint256",
          "name": "endTime",
          "type": "uint256"
        },
        {
          "internalType": "address",
          "name": "paymentToken",
          "type": "address"
        },
        {
          "internalType": "address",
          "name": "nftContract",
          "type": "address"
        }
      ],
      "stateMutability": "view",
      "type": "function"
    },
    {
      "inputs": [],
      "name": "orderNonce",
      "outputs": [
        {
          "internalType": "uint256",
          "name": "",
          "type": "uint256"
        }
      ],
      "stateMutability": "view",
      "type": "function"
    },
    {
      "inputs": [],
      "name": "owner",
      "outputs": [
        {
          "internalType": "address",
          "name": "",
          "type": "address"
        }
      ],
      "stateMutability": "view",
      "type": "function"
    },
    {
      "inputs": [
        {
          "internalType": "uint256",
          "name": "orderId",
          "type": "uint256"
        },
        {
          "internalType": "uint16",
          "name": "copies",
          "type": "uint16"
        },
        {
          "internalType": "uint256",
          "name": "pricePerNFT",
          "type": "uint256"
        }
      ],
      "name": "placeOfferForOrder",
      "outputs": [],
      "stateMutability": "payable",
      "type": "function"
    },
    {
      "inputs": [
        {
          "internalType": "uint256",
          "name": "tokenId",
          "type": "uint256"
        },
        {
          "internalType": "address",
          "name": "nftContract",
          "type": "address"
        },
        {
          "internalType": "uint16",
          "name": "copies",
          "type": "uint16"
        },
        {
          "internalType": "uint256",
          "name": "pricePerNFT",
          "type": "uint256"
        },
        {
          "internalType": "address",
          "name": "paymentToken",
          "type": "address"
        },
        {
          "internalType": "uint256",
          "name": "endTime",
          "type": "uint256"
        },
        {
          "internalType": "enum PokeMarketPlace.SaleType",
          "name": "saleType",
          "type": "uint8"
        }
      ],
      "name": "placeOrderForSell",
      "outputs": [],
      "stateMutability": "nonpayable",
      "type": "function"
    },
    {
      "inputs": [],
      "name": "platformFees",
      "outputs": [
        {
          "internalType": "uint256",
          "name": "",
          "type": "uint256"
        }
      ],
      "stateMutability": "view",
      "type": "function"
    },
    {
      "inputs": [],
      "name": "renounceOwnership",
      "outputs": [],
      "stateMutability": "nonpayable",
      "type": "function"
    },
    {
      "inputs": [
        {
          "internalType": "uint256",
          "name": "fee",
          "type": "uint256"
        }
      ],
      "name": "setPlatformFees",
      "outputs": [],
      "stateMutability": "nonpayable",
      "type": "function"
    },
    {
      "inputs": [
        {
          "internalType": "bytes4",
          "name": "interfaceId",
          "type": "bytes4"
        }
      ],
      "name": "supportsInterface",
      "outputs": [
        {
          "internalType": "bool",
          "name": "",
          "type": "bool"
        }
      ],
      "stateMutability": "view",
      "type": "function"
    },
    {
      "inputs": [
        {
          "internalType": "address",
          "name": "",
          "type": "address"
        }
      ],
      "name": "tokensSupport",
      "outputs": [
        {
          "internalType": "bool",
          "name": "",
          "type": "bool"
        }
      ],
      "stateMutability": "view",
      "type": "function"
    },
    {
      "inputs": [
        {
          "internalType": "address",
          "name": "newOwner",
          "type": "address"
        }
      ],
      "name": "transferOwnership",
      "outputs": [],
      "stateMutability": "nonpayable",
      "type": "function"
    },
    {
      "inputs": [
        {
          "internalType": "uint256",
          "name": "amount",
          "type": "uint256"
        },
        {
          "internalType": "address",
          "name": "tokenAddress",
          "type": "address"
        }
      ],
      "name": "withdrawMoney",
      "outputs": [],
      "stateMutability": "nonpayable",
      "type": "function"
    },
    {
      "inputs": [
        {
          "internalType": "uint256",
          "name": "orderId",
          "type": "uint256"
        },
        {
          "internalType": "uint256",
          "name": "bidId",
          "type": "uint256"
        },
        {
          "internalType": "bool",
          "name": "isReject",
          "type": "bool"
        }
      ],
      "name": "withdrawRejectBid",
      "outputs": [],
      "stateMutability": "nonpayable",
      "type": "function"
    }
  ],
  "bytecode": "0x60806040526097805460ff60a01b1916905534801561001d57600080fd5b506132428061002d6000396000f3fe6080604052600436106101655760003560e01c8063733c237d116100d1578063ada0f98f1161008a578063da35a26f11610064578063da35a26f146104ff578063e6f19ae61461051f578063f23a6e6114610532578063f2fde38b1461057857600080fd5b8063ada0f98f1461044e578063b02e75881461047e578063bc197c811461049e57600080fd5b8063733c237d1461038c57806379caee8c146103ac5780637b3c4baa146103cc5780638bd130cb146103fd5780638da5cb5b14610410578063a23c622a1461042e57600080fd5b8063194a4e7e11610123578063194a4e7e1461027e57806321603f4314610294578063369ede15146103245780634266aff814610337578063514fcac714610357578063715018a61461037757600080fd5b8062f313af1461016a57806301ffc9a71461018c57806302e9d5e4146101d25780630f1dd150146101f25780631417b9461461022257806316f8de891461025a575b600080fd5b34801561017657600080fd5b5061018a6101853660046129d2565b610598565b005b34801561019857600080fd5b506101bd6101a7366004612a0b565b6001600160e01b031916630271189760e51b1490565b60405190151581526020015b60405180910390f35b3480156101de57600080fd5b5061018a6101ed366004612a3c565b610881565b3480156101fe57600080fd5b506101bd61020d366004612a7a565b609b6020526000908152604090205460ff1681565b34801561022e57600080fd5b50609754610242906001600160a01b031681565b6040516001600160a01b0390911681526020016101c9565b34801561026657600080fd5b50610270609c5481565b6040519081526020016101c9565b34801561028a57600080fd5b50610270609d5481565b3480156102a057600080fd5b5061030f6102af366004612a95565b6098602052600090815260409020805460018201546002830154600384015460048501546005860154600690960154949593946001600160a01b0380851695600160a01b860461ffff1695600160b01b900460ff16949392908216911689565b6040516101c999989796959493929190612ad8565b61018a610332366004612b4d565b610cb6565b34801561034357600080fd5b5061018a610352366004612a7a565b61101c565b34801561036357600080fd5b5061018a610372366004612a95565b611048565b34801561038357600080fd5b5061018a6111eb565b34801561039857600080fd5b5061018a6103a7366004612a7a565b6111ff565b3480156103b857600080fd5b5061018a6103c7366004612a95565b61122b565b3480156103d857600080fd5b506103ec6103e7366004612a3c565b611275565b6040516101c9959493929190612b79565b61018a61040b366004612bc1565b6112d5565b34801561041c57600080fd5b506065546001600160a01b0316610242565b34801561043a57600080fd5b5061018a610449366004612bf6565b6117a3565b34801561045a57600080fd5b506101bd610469366004612a7a565b609a6020526000908152604090205460ff1681565b34801561048a57600080fd5b5061018a610499366004612c6f565b611b4b565b3480156104aa57600080fd5b506104e66104b9366004612d20565b7fbc197c819b3e337a6f9652dd10becd7eef83032af3b9d958d3d42f669414662198975050505050505050565b6040516001600160e01b031990911681526020016101c9565b34801561050b57600080fd5b5061018a61051a366004612c6f565b611ced565b61018a61052d366004612ddb565b611e1f565b34801561053e57600080fd5b506104e661054d366004612e47565b7ff23a6e612e1ff4830e658fe43f4e3cb4a5f8170bd5d9e69fb5d7a7fa9e4fdf979695505050505050565b34801561058457600080fd5b5061018a610593366004612a7a565b612263565b6000838152609860209081526040808320609990925282208054919291859081106105c5576105c5612ebf565b9060005260206000209060040201905082156106155760028201546001600160a01b031633146106105760405162461bcd60e51b815260040161060790612ed5565b60405180910390fd5b61063e565b80546001600160a01b0316331461063e5760405162461bcd60e51b815260040161060790612ed5565b6000600382015460ff16600481111561065957610659612aae565b146106765760405162461bcd60e51b815260040161060790612ed5565b6005820154815460018301546001600160a01b0390921615916000916106a891600160a01b90910461ffff1690612f11565b9050816106c85760058401546106c8906001600160a01b031633836122dc565b8415610768576000878152609960205260409020805460029190889081106106f2576106f2612ebf565b906000526020600020906004020160030160006101000a81548160ff0219169083600481111561072457610724612aae565b0217905550867f862482fca0f1c4dde27614ebf8dceca2174aae3f4f5a9ee8d09aaf6aa8177f3f8760405161075b91815260200190565b60405180910390a26107fe565b60008781526099602052604090208054600391908890811061078c5761078c612ebf565b906000526020600020906004020160030160006101000a81548160ff021916908360048111156107be576107be612aae565b0217905550867f5a993d07c9201d97ef6e60c13ca29c90f6c59a79f7b01a902db32551a28b29b9876040516107f591815260200190565b60405180910390a25b81156108785782546040516000916001600160a01b03169083908381818185875af1925050503d8060008114610850576040519150601f19603f3d011682016040523d82523d6000602084013e610855565b606091505b50509050806108765760405162461bcd60e51b815260040161060790612f30565b505b50505050505050565b6000828152609860209081526040808320609990925282208054919291849081106108ae576108ae612ebf565b600091825260209091206004909102018054600284015491925061ffff600160a01b91829004811691909204909116101561091f5760405162461bcd60e51b81526020600482015260116024820152704e6674206e6f7420617661696c61626c6560781b6044820152606401610607565b60028201546001600160a01b031633146109705760405162461bcd60e51b81526020600482015260126024820152711b9bdd081a5b9d9b1a59081c995c5d595cdd60721b6044820152606401610607565b6000600382015460ff16600481111561098b5761098b612aae565b146109d05760405162461bcd60e51b8152602060048201526015602482015274426964206e6f742076616c696420616e796d6f726560581b6044820152606401610607565b6005820154815460018301546001600160a01b039092161591600091610a0291600160a01b90910461ffff1690612f11565b9050600061271082609d54610a179190612f11565b610a219190612f59565b6006860154855460405163a22cb46560e01b81526001600160a01b03918216600482015260016024820152929350169063a22cb46590604401600060405180830381600087803b158015610a7457600080fd5b505af1158015610a88573d6000803e3d6000fd5b50505050600685015484548654604051637921219560e11b81526001600160a01b039384169363f242432a93610ad4933093928216929091600160a01b900461ffff1690600401612f7b565b600060405180830381600087803b158015610aee57600080fd5b505af1158015610b02573d6000803e3d6000fd5b5050505082610b2d576005850154610b2d906001600160a01b031633610b288486612fb6565b6122dc565b600087815260996020526040902080546001919088908110610b5157610b51612ebf565b906000526020600020906004020160030160006101000a81548160ff02191690836004811115610b8357610b83612aae565b021790555083546002860154610bac9161ffff600160a01b918290048116929190910416612fcd565b60028601805461ffff60a01b1916600160a01b61ffff93841681029190911791829055900416610be057610be087846122f1565b8215610c655760028501546000906001600160a01b0316610c018385612fb6565b604051600081818185875af1925050503d8060008114610c3d576040519150601f19603f3d011682016040523d82523d6000602084013e610c42565b606091505b5050905080610c635760405162461bcd60e51b815260040161060790612f30565b505b835460408051888152600160a01b90920461ffff16602083015288917f8a1d92bfdb091522c5b1140f77418445f2b0df2a7dd6cb11b76d59894e530c6191015b60405180910390a250505050505050565b610cbe612565565b6000828152609860205260408120906002820154600160b01b900460ff166001811115610ced57610ced612aae565b14610d2f5760405162461bcd60e51b8152602060048201526012602482015271496e76616c69642053616c6573207479706560701b6044820152606401610607565b600581015460018201546001600160a01b039091161590600090610d589061ffff861690612f11565b90508115610da75780341015610da75760405162461bcd60e51b81526020600482015260146024820152734e6f742073756666696369656e742066756e647360601b6044820152606401610607565b600061271082609d54610dba9190612f11565b610dc49190612f59565b905082610e145760058401546001600160a01b0316610de5813330866125bf565b6002850154610e12906001600160a01b0316610e018486612fb6565b6001600160a01b038416919061262a565b505b60068401548454604051637921219560e11b81526001600160a01b039092169163f242432a91610e4c91309133918b90600401612f7b565b600060405180830381600087803b158015610e6657600080fd5b505af1158015610e7a573d6000803e3d6000fd5b5050505060028401546001600160a01b0381169061ffff878116600160a01b909204161415610f02576000878152609860205260408120818155600181018290556002810180546001600160b81b03191690556003810182905560048101919091556005810180546001600160a01b0319908116909155600690910180549091169055610f4c565b60008781526098602052604090206002018054879190601490610f31908490600160a01b900461ffff16612fcd565b92506101000a81548161ffff021916908361ffff1602179055505b8315610fcc5760006001600160a01b038216610f688486612fb6565b604051600081818185875af1925050503d8060008114610fa4576040519150601f19603f3d011682016040523d82523d6000602084013e610fa9565b606091505b5050905080610fca5760405162461bcd60e51b815260040161060790612f30565b505b6040805133815261ffff8816602082015288917fdb622478ff344d543338a892a6794926bf6113f347037c2eaf4bf0ac50f71839910160405180910390a2505050505061101860018055565b5050565b61102461265a565b6001600160a01b03166000908152609a60205260409020805460ff19166001179055565b600081815260986020526040902060028101546001600160a01b031633146110a45760405162461bcd60e51b815260206004820152600f60248201526e125b9d985b1a59081c995c5d595cdd608a1b6044820152606401610607565b600681015481546002830154604051637921219560e11b81526001600160a01b039093169263f242432a926110ec923092339291600160a01b900461ffff1690600401612f7b565b600060405180830381600087803b15801561110657600080fd5b505af115801561111a573d6000803e3d6000fd5b5060019250611127915050565b6002820154600160b01b900460ff16600181111561114757611147612aae565b14156111675760058101546111679083906001600160a01b0316156122f1565b600082815260986020526040808220828155600181018390556002810180546001600160b81b031916905560038101839055600481018390556005810180546001600160a01b03199081169091556006909101805490911690555183917f61b9399f2f0f32ca39ce8d7be32caed5ec22fe07a6daba3a467ed479ec60658291a25050565b6111f361265a565b6111fd60006126b4565b565b61120761265a565b6001600160a01b03166000908152609b60205260409020805460ff19166001179055565b61123361265a565b6113888111156112705760405162461bcd60e51b8152602060048201526008602482015267486967682066656560c01b6044820152606401610607565b609d55565b6099602052816000526040600020818154811061129157600080fd5b600091825260209091206004909102018054600182015460028301546003909301546001600160a01b0383169550600160a01b90920461ffff169350919060ff1685565b600083815260986020526040902060028101546001600160a01b03166113355760405162461bcd60e51b8152602060048201526015602482015274125b9d985b1a59081bdc99195c881c995c5d595cdd605a1b6044820152606401610607565b600581015460028201546001600160a01b0391821615911633141561138e5760405162461bcd60e51b815260206004820152600f60248201526e125b9d985b1a59081c995c5d595cdd608a1b6044820152606401610607565b428260040154116113d25760405162461bcd60e51b815260206004820152600e60248201526d027b93232b91032bc3834b932b2160951b6044820152606401610607565b82826001015411156114165760405162461bcd60e51b815260206004820152600d60248201526c496e76616c696420507269636560981b6044820152606401610607565b600282015461ffff600160a01b90910481169085161180159061143d575060008461ffff16115b61147f5760405162461bcd60e51b81526020600482015260136024820152726e6f7420656e6f756768207175616e7469747960681b6044820152606401610607565b6000858152609960205260408120549061149d61ffff871686612f11565b905082156114ef57803410156114ea5760405162461bcd60e51b81526020600482015260126024820152716e6f7420656e6f7567682062616c616e636560701b6044820152606401610607565b611696565b6005840154604051636eb1769f60e11b81523360048201523060248201526001600160a01b0390911690600090829063dd62ed3e9060440160206040518083038186803b15801561153f57600080fd5b505afa158015611553573d6000803e3d6000fd5b505050506040513d601f19601f820116820180604052508101906115779190612ff0565b6040516370a0823160e01b81523360048201529091506000906001600160a01b038416906370a082319060240160206040518083038186803b1580156115bc57600080fd5b505afa1580156115d0573d6000803e3d6000fd5b505050506040513d601f19601f820116820180604052508101906115f49190612ff0565b9050838210156116385760405162461bcd60e51b815260206004820152600f60248201526e616c6c6f77616e636520697373756560881b6044820152606401610607565b8381101561167d5760405162461bcd60e51b81526020600482015260126024820152716e6f7420656e6f7567682062616c616e636560701b6044820152606401610607565b6116926001600160a01b0384163330876125bf565b5050505b6000878152609960209081526040808320815160a08101835233815261ffff8b81168286019081529382018b8152426060840190815260808401888152855460018082018855968a52979098208451600498890290910180549751909416600160a01b026001600160b01b03199097166001600160a01b0390911617959095178255518184015592516002840155935160038301805493949193909260ff1990911691849081111561174a5761174a612aae565b0217905550506040805184815233602082015261ffff891691810191909152606081018790524260808201528891507f630d4414473703aa230e8fbb9576305336973b02b227da0e69f704ea36277db19060a001610ca5565b600084116117e35760405162461bcd60e51b815260206004820152600d60248201526c496e76616c696420707269636560981b6044820152606401610607565b6001600160a01b0386161580159061181357506001600160a01b0386166000908152609a602052604090205460ff165b6118565760405162461bcd60e51b8152602060048201526014602482015273125b9d985b1a59081391950810dbdb9d1c9858dd60621b6044820152606401610607565b600081600181111561186a5761186a612aae565b14806118875750600181600181111561188557611885612aae565b145b6118c25760405162461bcd60e51b815260206004820152600c60248201526b496e76616c69642073616c6560a01b6044820152606401610607565b6001600160a01b03831615806118f057506001600160a01b0383166000908152609b602052604090205460ff165b6119355760405162461bcd60e51b8152602060048201526016602482015275125b9d985b1a59081d1bdad95b8810dbdb9d1c9858dd60521b6044820152606401610607565b604051806101200160405280888152602001858152602001336001600160a01b031681526020018661ffff16815260200182600181111561197857611978612aae565b81524260208083019190915260408083018690526001600160a01b038088166060808601919091528b8216608095860152609c546000908152609885528390208651815593860151600180860191909155928601516002850180549288015161ffff16600160a01b026001600160b01b0319909316919093161717808255938501519293909160ff60b01b1990911690600160b01b908490811115611a1f57611a1f612aae565b021790555060a0820151600382015560c0820151600482015560e08201516005820180546001600160a01b03199081166001600160a01b039384161790915561010090930151600690920180549093169116179055609c8054906000611a8483613009565b9091555050604051637921219560e11b81526001600160a01b0387169063f242432a90611abb90339030908c908b90600401612f7b565b600060405180830381600087803b158015611ad557600080fd5b505af1158015611ae9573d6000803e3d6000fd5b50505050866001609c54611afd9190612fb6565b7f75e4ed4b926e96ef5c9c819b7791ea892a1b6c1a180e7e91948302052e10fd898633898642898b8f604051611b3a989796959493929190613024565b60405180910390a350505050505050565b611b5361265a565b6001600160a01b038116611ba0576097546040516001600160a01b039091169083156108fc029084906000818181858888f19350505050158015611b9b573d6000803e3d6000fd5b505050565b6001600160a01b0381166000908152609b602052604090205460ff16611c085760405162461bcd60e51b815260206004820152601960248201527f756e737570706f7274656420746f6b656e2061646472657373000000000000006044820152606401610607565b6040516370a0823160e01b815233600482015281906000906001600160a01b038316906370a082319060240160206040518083038186803b158015611c4c57600080fd5b505afa158015611c60573d6000803e3d6000fd5b505050506040513d601f19601f82011682018060405250810190611c849190612ff0565b905083811015611ccd5760405162461bcd60e51b815260206004820152601460248201527318985b185b98d948125b9cdd59999a58da595b9d60621b6044820152606401610607565b609754611ce7906001600160a01b0384811691168661262a565b50505050565b600054610100900460ff1615808015611d0d5750600054600160ff909116105b80611d275750303b158015611d27575060005460ff166001145b611d8a5760405162461bcd60e51b815260206004820152602e60248201527f496e697469616c697a61626c653a20636f6e747261637420697320616c72656160448201526d191e481a5b9a5d1a585b1a5e995960921b6064820152608401610607565b6000805460ff191660011790558015611dad576000805461ff0019166101001790555b609780546001600160a01b0319166001600160a01b038416179055609d839055611dd5612706565b8015611b9b576000805461ff0019169055604051600181527f7f26b83ff96e1f2b6a682f133852f6798a09c465da95921460cefb38474024989060200160405180910390a1505050565b6097546001600160a01b03163314611e655760405162461bcd60e51b81526020600482015260096024820152682737ba1020b236b4b760b91b6044820152606401610607565b6000808467ffffffffffffffff811115611e8157611e8161307e565b604051908082528060200260200182016040528015611eaa578160200160208202803683370190505b50905060008567ffffffffffffffff811115611ec857611ec861307e565b604051908082528060200260200182016040528015611ef1578160200160208202803683370190505b5090506000805b60ff81168811156120ce57600089898360ff16818110611f1a57611f1a612ebf565b9050602002013590506000609860008c8c8660ff16818110611f3e57611f3e612ebf565b90506020020135815260200190815260200160002090506098600083815260200190815260200160002060000154868460ff1681518110611f8157611f81612ebf565b60200260200101818152505088888460ff16818110611fa257611fa2612ebf565b905060200201356098600084815260200190815260200160002060010154611fca9190612f11565b611fd49088613094565b600083815260986020526040902060020154909750600160a01b900461ffff16898960ff861681811061200957612009612ebf565b90506020020135111561201b57600193505b600681015485516001600160a01b0390911690869060ff861690811061204357612043612ebf565b60200260200101906001600160a01b031690816001600160a01b03168152505088888460ff1681811061207857612078612ebf565b905060200201358160020160148282829054906101000a900461ffff1661209f9190612fcd565b92506101000a81548161ffff021916908361ffff160217905550505080806120c6906130ac565b915050611ef8565b50801580156120dd5750348411155b6121155760405162461bcd60e51b8152602060048201526009602482015268125d88105b5bdd5b9d60ba1b6044820152606401610607565b60005b82518160ff16101561221b57828160ff168151811061213957612139612ebf565b60200260200101516001600160a01b031663f242432a3033878560ff168151811061216657612166612ebf565b60200260200101518b8b8760ff1681811061218357612183612ebf565b6040516001600160e01b031960e089901b1681526001600160a01b03968716600482015295909416602486015250604484019190915260209091020135606482015260a06084820152600060a482015260c401600060405180830381600087803b1580156121f057600080fd5b505af1158015612204573d6000803e3d6000fd5b505050508080612213906130ac565b915050612118565b507f04b0a0f635536c10e902b8bcb5703ba035bebe05c24671fe33115f32da8acd38888888886040516122519493929190613102565b60405180910390a15050505050505050565b61226b61265a565b6001600160a01b0381166122d05760405162461bcd60e51b815260206004820152602660248201527f4f776e61626c653a206e6577206f776e657220697320746865207a65726f206160448201526564647265737360d01b6064820152608401610607565b6122d9816126b4565b50565b82611ce76001600160a01b038216848461262a565b6000828152609860205260408120905b60008481526099602052604090205460ff82161015611ce7576000848152609960205260408120805460ff841690811061233d5761233d612ebf565b600091825260209091206004918202016003015460ff169081111561236457612364612aae565b1415612553576000848152609960205260408120805460ff841690811061238d5761238d612ebf565b906000526020600020906004020160010154609960008781526020019081526020016000208360ff16815481106123c6576123c6612ebf565b60009182526020909120600490910201546123ec9190600160a01b900461ffff16612f11565b6000868152609960205260409020805491925060049160ff851690811061241557612415612ebf565b906000526020600020906004020160030160006101000a81548160ff0219169083600481111561244757612447612aae565b021790555083156124fa576000858152609960205260408120805460ff851690811061247557612475612ebf565b600091825260208220600490910201546040516001600160a01b039091169184919081818185875af1925050503d80600081146124ce576040519150601f19603f3d011682016040523d82523d6000602084013e6124d3565b606091505b50509050806124f45760405162461bcd60e51b815260040161060790612f30565b50612551565b600583015460008681526099602052604090208054612551926001600160a01b0316919060ff861690811061253157612531612ebf565b60009182526020909120600490910201546001600160a01b0316836122dc565b505b8061255d816130ac565b915050612301565b600260015414156125b85760405162461bcd60e51b815260206004820152601f60248201527f5265656e7472616e637947756172643a207265656e7472616e742063616c6c006044820152606401610607565b6002600155565b6040516001600160a01b0380851660248301528316604482015260648101829052611ce79085906323b872dd60e01b906084015b60408051601f198184030181529190526020810180516001600160e01b03166001600160e01b031990931692909217909152612735565b6040516001600160a01b038316602482015260448101829052611b9b90849063a9059cbb60e01b906064016125f3565b6065546001600160a01b031633146111fd5760405162461bcd60e51b815260206004820181905260248201527f4f776e61626c653a2063616c6c6572206973206e6f7420746865206f776e65726044820152606401610607565b606580546001600160a01b038381166001600160a01b0319831681179093556040519116919082907f8be0079c531659141344cd1fd0a4f28419497f9722a3daafe3b4186f6b6457e090600090a35050565b600054610100900460ff1661272d5760405162461bcd60e51b815260040161060790613129565b6111fd612807565b600061278a826040518060400160405280602081526020017f5361666545524332303a206c6f772d6c6576656c2063616c6c206661696c6564815250856001600160a01b03166128379092919063ffffffff16565b805190915015611b9b57808060200190518101906127a89190613174565b611b9b5760405162461bcd60e51b815260206004820152602a60248201527f5361666545524332303a204552433230206f7065726174696f6e20646964206e6044820152691bdd081cdd58d8d9595960b21b6064820152608401610607565b600054610100900460ff1661282e5760405162461bcd60e51b815260040161060790613129565b6111fd336126b4565b6060612846848460008561284e565b949350505050565b6060824710156128af5760405162461bcd60e51b815260206004820152602660248201527f416464726573733a20696e73756666696369656e742062616c616e636520666f6044820152651c8818d85b1b60d21b6064820152608401610607565b600080866001600160a01b031685876040516128cb91906131bd565b60006040518083038185875af1925050503d8060008114612908576040519150601f19603f3d011682016040523d82523d6000602084013e61290d565b606091505b509150915061291e87838387612929565b979650505050505050565b6060831561299557825161298e576001600160a01b0385163b61298e5760405162461bcd60e51b815260206004820152601d60248201527f416464726573733a2063616c6c20746f206e6f6e2d636f6e74726163740000006044820152606401610607565b5081612846565b61284683838151156129aa5781518083602001fd5b8060405162461bcd60e51b815260040161060791906131d9565b80151581146122d957600080fd5b6000806000606084860312156129e757600080fd5b83359250602084013591506040840135612a00816129c4565b809150509250925092565b600060208284031215612a1d57600080fd5b81356001600160e01b031981168114612a3557600080fd5b9392505050565b60008060408385031215612a4f57600080fd5b50508035926020909101359150565b80356001600160a01b0381168114612a7557600080fd5b919050565b600060208284031215612a8c57600080fd5b612a3582612a5e565b600060208284031215612aa757600080fd5b5035919050565b634e487b7160e01b600052602160045260246000fd5b60028110612ad457612ad4612aae565b9052565b898152602081018990526001600160a01b03888116604083015261ffff88166060830152610120820190612b0f6080840189612ac4565b8660a08401528560c084015280851660e0840152808416610100840152509a9950505050505050505050565b803561ffff81168114612a7557600080fd5b60008060408385031215612b6057600080fd5b82359150612b7060208401612b3b565b90509250929050565b6001600160a01b038616815261ffff85166020820152604081018490526060810183905260a0810160058310612bb157612bb1612aae565b8260808301529695505050505050565b600080600060608486031215612bd657600080fd5b83359250612be660208501612b3b565b9150604084013590509250925092565b600080600080600080600060e0888a031215612c1157600080fd5b87359650612c2160208901612a5e565b9550612c2f60408901612b3b565b945060608801359350612c4460808901612a5e565b925060a0880135915060c088013560028110612c5f57600080fd5b8091505092959891949750929550565b60008060408385031215612c8257600080fd5b82359150612b7060208401612a5e565b60008083601f840112612ca457600080fd5b50813567ffffffffffffffff811115612cbc57600080fd5b6020830191508360208260051b8501011115612cd757600080fd5b9250929050565b60008083601f840112612cf057600080fd5b50813567ffffffffffffffff811115612d0857600080fd5b602083019150836020828501011115612cd757600080fd5b60008060008060008060008060a0898b031215612d3c57600080fd5b612d4589612a5e565b9750612d5360208a01612a5e565b9650604089013567ffffffffffffffff80821115612d7057600080fd5b612d7c8c838d01612c92565b909850965060608b0135915080821115612d9557600080fd5b612da18c838d01612c92565b909650945060808b0135915080821115612dba57600080fd5b50612dc78b828c01612cde565b999c989b5096995094979396929594505050565b60008060008060408587031215612df157600080fd5b843567ffffffffffffffff80821115612e0957600080fd5b612e1588838901612c92565b90965094506020870135915080821115612e2e57600080fd5b50612e3b87828801612c92565b95989497509550505050565b60008060008060008060a08789031215612e6057600080fd5b612e6987612a5e565b9550612e7760208801612a5e565b94506040870135935060608701359250608087013567ffffffffffffffff811115612ea157600080fd5b612ead89828a01612cde565b979a9699509497509295939492505050565b634e487b7160e01b600052603260045260246000fd5b6020808252600c908201526b63616e742070726f6365737360a01b604082015260600190565b634e487b7160e01b600052601160045260246000fd5b6000816000190483118215151615612f2b57612f2b612efb565b500290565b6020808252600f908201526e151c985b9cd9995c8811985a5b1959608a1b604082015260600190565b600082612f7657634e487b7160e01b600052601260045260246000fd5b500490565b6001600160a01b039485168152929093166020830152604082015261ffff909116606082015260a06080820181905260009082015260c00190565b600082821015612fc857612fc8612efb565b500390565b600061ffff83811690831681811015612fe857612fe8612efb565b039392505050565b60006020828403121561300257600080fd5b5051919050565b600060001982141561301d5761301d612efb565b5060010190565b8881526001600160a01b03888116602083015261ffff881660408301526101008201906130546060840189612ac4565b8660808401528560a084015280851660c084015280841660e0840152509998505050505050505050565b634e487b7160e01b600052604160045260246000fd5b600082198211156130a7576130a7612efb565b500190565b600060ff821660ff8114156130c3576130c3612efb565b60010192915050565b81835260006001600160fb1b038311156130e557600080fd5b8260051b8083602087013760009401602001938452509192915050565b6040815260006131166040830186886130cc565b828103602084015261291e8185876130cc565b6020808252602b908201527f496e697469616c697a61626c653a20636f6e7472616374206973206e6f74206960408201526a6e697469616c697a696e6760a81b606082015260800190565b60006020828403121561318657600080fd5b8151612a35816129c4565b60005b838110156131ac578181015183820152602001613194565b83811115611ce75750506000910152565b600082516131cf818460208701613191565b9190910192915050565b60208152600082518060208401526131f8816040850160208701613191565b601f01601f1916919091016040019291505056fea2646970667358221220bd0e6f9325fa31a93013df9f85b62f7af35ffd8ed1f30f0da039069695c9cb7664736f6c63430008090033",
  "linkReferences": {},
  "deployedLinkReferences": {}
}